{
  "abi": [
    {
      "inputs": [
        {
          "internalType": "uint256",
          "name": "_mintStart",
          "type": "uint256"
        },
        {
          "internalType": "contract Goo",
          "name": "_goo",
          "type": "address"
        },
        {
          "internalType": "address",
          "name": "_community",
          "type": "address"
        },
        {
          "internalType": "address",
          "name": "_artGobblers",
          "type": "address"
        },
        {
          "internalType": "string",
          "name": "_baseUri",
          "type": "string"
        }
      ],
      "stateMutability": "nonpayable",
      "type": "constructor"
    },
    {
      "inputs": [
        {
          "internalType": "uint256",
          "name": "currentPrice",
          "type": "uint256"
        }
      ],
      "name": "PriceExceededMax",
      "type": "error"
    },
    {
      "inputs": [],
      "name": "ReserveImbalance",
      "type": "error"
    },
    {
      "anonymous": false,
      "inputs": [
        {
          "indexed": true,
          "internalType": "address",
          "name": "owner",
          "type": "address"
        },
        {
          "indexed": true,
          "internalType": "address",
          "name": "spender",
          "type": "address"
        },
        {
          "indexed": true,
          "internalType": "uint256",
          "name": "id",
          "type": "uint256"
        }
      ],
      "name": "Approval",
      "type": "event"
    },
    {
      "anonymous": false,
      "inputs": [
        {
          "indexed": true,
          "internalType": "address",
          "name": "owner",
          "type": "address"
        },
        {
          "indexed": true,
          "internalType": "address",
          "name": "operator",
          "type": "address"
        },
        {
          "indexed": false,
          "internalType": "bool",
          "name": "approved",
          "type": "bool"
        }
      ],
      "name": "ApprovalForAll",
      "type": "event"
    },
    {
      "anonymous": false,
      "inputs": [
        {
          "indexed": true,
          "internalType": "address",
          "name": "user",
          "type": "address"
        },
        {
          "indexed": false,
          "internalType": "uint256",
          "name": "lastMintedPageId",
          "type": "uint256"
        },
        {
          "indexed": false,
          "internalType": "uint256",
          "name": "numPages",
          "type": "uint256"
        }
      ],
      "name": "CommunityPagesMinted",
      "type": "event"
    },
    {
      "anonymous": false,
      "inputs": [
        {
          "indexed": true,
          "internalType": "address",
          "name": "user",
          "type": "address"
        },
        {
          "indexed": true,
          "internalType": "uint256",
          "name": "pageId",
          "type": "uint256"
        },
        {
          "indexed": false,
          "internalType": "uint256",
          "name": "price",
          "type": "uint256"
        }
      ],
      "name": "PagePurchased",
      "type": "event"
    },
    {
      "anonymous": false,
      "inputs": [
        {
          "indexed": true,
          "internalType": "address",
          "name": "from",
          "type": "address"
        },
        {
          "indexed": true,
          "internalType": "address",
          "name": "to",
          "type": "address"
        },
        {
          "indexed": true,
          "internalType": "uint256",
          "name": "id",
          "type": "uint256"
        }
      ],
      "name": "Transfer",
      "type": "event"
    },
    {
      "inputs": [],
      "name": "BASE_URI",
      "outputs": [
        {
          "internalType": "string",
          "name": "",
          "type": "string"
        }
      ],
      "stateMutability": "view",
      "type": "function"
    },
    {
      "inputs": [
        {
          "internalType": "address",
          "name": "spender",
          "type": "address"
        },
        {
          "internalType": "uint256",
          "name": "id",
          "type": "uint256"
        }
      ],
      "name": "approve",
      "outputs": [],
      "stateMutability": "nonpayable",
      "type": "function"
    },
    {
      "inputs": [],
      "name": "artGobblers",
      "outputs": [
        {
          "internalType": "address",
          "name": "",
          "type": "address"
        }
      ],
      "stateMutability": "view",
      "type": "function"
    },
    {
      "inputs": [
        {
          "internalType": "address",
          "name": "owner",
          "type": "address"
        }
      ],
      "name": "balanceOf",
      "outputs": [
        {
          "internalType": "uint256",
          "name": "",
          "type": "uint256"
        }
      ],
      "stateMutability": "view",
      "type": "function"
    },
    {
      "inputs": [],
      "name": "community",
      "outputs": [
        {
          "internalType": "address",
          "name": "",
          "type": "address"
        }
      ],
      "stateMutability": "view",
      "type": "function"
    },
    {
      "inputs": [],
      "name": "currentId",
      "outputs": [
        {
          "internalType": "uint128",
          "name": "",
          "type": "uint128"
        }
      ],
      "stateMutability": "view",
      "type": "function"
    },
    {
      "inputs": [
        {
          "internalType": "uint256",
          "name": "",
          "type": "uint256"
        }
      ],
      "name": "getApproved",
      "outputs": [
        {
          "internalType": "address",
          "name": "",
          "type": "address"
        }
      ],
      "stateMutability": "view",
      "type": "function"
    },
    {
      "inputs": [
        {
          "internalType": "uint256",
          "name": "timeSinceStart",
          "type": "uint256"
        },
        {
          "internalType": "uint256",
          "name": "sold",
          "type": "uint256"
        }
      ],
      "name": "getPrice",
      "outputs": [
        {
          "internalType": "uint256",
          "name": "",
          "type": "uint256"
        }
      ],
      "stateMutability": "view",
      "type": "function"
    },
    {
      "inputs": [],
      "name": "goo",
      "outputs": [
        {
          "internalType": "contract Goo",
          "name": "",
          "type": "address"
        }
      ],
      "stateMutability": "view",
      "type": "function"
    },
    {
      "inputs": [],
      "name": "initialPrice",
      "outputs": [
        {
          "internalType": "int256",
          "name": "",
          "type": "int256"
        }
      ],
      "stateMutability": "view",
      "type": "function"
    },
    {
      "inputs": [
        {
          "internalType": "address",
          "name": "owner",
          "type": "address"
        },
        {
          "internalType": "address",
          "name": "operator",
          "type": "address"
        }
      ],
      "name": "isApprovedForAll",
      "outputs": [
        {
          "internalType": "bool",
          "name": "isApproved",
          "type": "bool"
        }
      ],
      "stateMutability": "view",
      "type": "function"
    },
    {
      "inputs": [
        {
          "internalType": "uint256",
          "name": "numPages",
          "type": "uint256"
        }
      ],
      "name": "mintCommunityPages",
      "outputs": [
        {
          "internalType": "uint256",
          "name": "lastMintedPageId",
          "type": "uint256"
        }
      ],
      "stateMutability": "nonpayable",
      "type": "function"
    },
    {
      "inputs": [
        {
          "internalType": "uint256",
          "name": "maxPrice",
          "type": "uint256"
        }
      ],
      "name": "mintFromGoo",
      "outputs": [
        {
          "internalType": "uint256",
          "name": "pageId",
          "type": "uint256"
        }
      ],
      "stateMutability": "nonpayable",
      "type": "function"
    },
    {
      "inputs": [],
      "name": "mintStart",
      "outputs": [
        {
          "internalType": "uint256",
          "name": "",
          "type": "uint256"
        }
      ],
      "stateMutability": "view",
      "type": "function"
    },
    {
      "inputs": [],
      "name": "name",
      "outputs": [
        {
          "internalType": "string",
          "name": "",
          "type": "string"
        }
      ],
      "stateMutability": "view",
      "type": "function"
    },
    {
      "inputs": [],
      "name": "numMintedForCommunity",
      "outputs": [
        {
          "internalType": "uint128",
          "name": "",
          "type": "uint128"
        }
      ],
      "stateMutability": "view",
      "type": "function"
    },
    {
      "inputs": [
        {
          "internalType": "uint256",
          "name": "id",
          "type": "uint256"
        }
      ],
      "name": "ownerOf",
      "outputs": [
        {
          "internalType": "address",
          "name": "owner",
          "type": "address"
        }
      ],
      "stateMutability": "view",
      "type": "function"
    },
    {
      "inputs": [],
      "name": "pagePrice",
      "outputs": [
        {
          "internalType": "uint256",
          "name": "",
          "type": "uint256"
        }
      ],
      "stateMutability": "view",
      "type": "function"
    },
    {
      "inputs": [
        {
          "internalType": "address",
          "name": "from",
          "type": "address"
        },
        {
          "internalType": "address",
          "name": "to",
          "type": "address"
        },
        {
          "internalType": "uint256",
          "name": "id",
          "type": "uint256"
        }
      ],
      "name": "safeTransferFrom",
      "outputs": [],
      "stateMutability": "nonpayable",
      "type": "function"
    },
    {
      "inputs": [
        {
          "internalType": "address",
          "name": "from",
          "type": "address"
        },
        {
          "internalType": "address",
          "name": "to",
          "type": "address"
        },
        {
          "internalType": "uint256",
          "name": "id",
          "type": "uint256"
        },
        {
          "internalType": "bytes",
          "name": "data",
          "type": "bytes"
        }
      ],
      "name": "safeTransferFrom",
      "outputs": [],
      "stateMutability": "nonpayable",
      "type": "function"
    },
    {
      "inputs": [
        {
          "internalType": "address",
          "name": "operator",
          "type": "address"
        },
        {
          "internalType": "bool",
          "name": "approved",
          "type": "bool"
        }
      ],
      "name": "setApprovalForAll",
      "outputs": [],
      "stateMutability": "nonpayable",
      "type": "function"
    },
    {
      "inputs": [
        {
          "internalType": "bytes4",
          "name": "interfaceId",
          "type": "bytes4"
        }
      ],
      "name": "supportsInterface",
      "outputs": [
        {
          "internalType": "bool",
          "name": "",
          "type": "bool"
        }
      ],
      "stateMutability": "view",
      "type": "function"
    },
    {
      "inputs": [],
      "name": "symbol",
      "outputs": [
        {
          "internalType": "string",
          "name": "",
          "type": "string"
        }
      ],
      "stateMutability": "view",
      "type": "function"
    },
    {
      "inputs": [
        {
          "internalType": "uint256",
          "name": "pageId",
          "type": "uint256"
        }
      ],
      "name": "tokenURI",
      "outputs": [
        {
          "internalType": "string",
          "name": "",
          "type": "string"
        }
      ],
      "stateMutability": "view",
      "type": "function"
    },
    {
      "inputs": [
        {
          "internalType": "address",
          "name": "from",
          "type": "address"
        },
        {
          "internalType": "address",
          "name": "to",
          "type": "address"
        },
        {
          "internalType": "uint256",
          "name": "id",
          "type": "uint256"
        }
      ],
      "name": "transferFrom",
      "outputs": [],
      "stateMutability": "nonpayable",
      "type": "function"
    }
  ],
  "bytecode": {
    "object": "0x6102006040523480156200001257600080fd5b50604051620029083803806200290883398101604081905262000035916200048c565b6901d21e30730124c08a9a680ea300b17a8b780000677ce66c50e28400006901e7e4171bf4d3a000006631bced02db0000673a61e942c997400067044d575b885f00008860405180604001604052806008815260200167426c616e6b69657360c01b81525060405180604001604052806005815260200164424c414e4b60d81b8152508160009080519060200190620000d0929190620003b7565b508051620000e6906001906020840190620003b7565b5050506001600160a01b031660805260a0829052620001186200011282670de0b6b3a7640000620005cb565b6200018b565b60c0525062000132905082671bc16d674ec8000062000610565b60e05261012091909152610100526101409290925261016052610180526101e08590526001600160a01b038085166101a05283166101c05280516200017f906006906020840190620003b7565b505050505050620006dd565b6000808213620001cd5760405162461bcd60e51b815260206004820152600960248201526815539111519253915160ba1b604482015260640160405180910390fd5b5060606001600160801b03821160071b82811c6001600160401b031060061b1782811c63ffffffff1060051b1782811c61ffff1060041b1782811c60ff10600390811b90911783811c600f1060021b1783811c909110600190811b90911783811c90911017609f81810383019390931b90921c6c465772b2bbbb5f824b15207a3081018102821d6d0388eaa27412d5aca026815d636e018102821d6d0df99ac502031bf953eff472fdcc018102821d6d13cdffb29d51d99322bdff5f2211018102821d6d0a0f742023def783a307a986912e018102821d6d01920d8043ca89b5239253284e42018102821d6c0b7a86d7375468fac667a0a527016c29508e458543d8aa4df2abee7882018202831d6d0139601a2efabe717e604cbb4894018202831d6d02247f7a7b6594320649aa03aba1018202831d6c8c3f38e95a6b1ff2ab1c3b343619018202831d6d02384773bdf1ac5676facced60901901820290921d6cb9a025d814b29c212b8b1a07cd19010260016c0504a838426634cdd8738f543560611b03190105711340daa0d5f769dba1915cef59f0815a550602605f19919091017d0267a36c0c95b3975ab3ee5b203a7614a3f75373f047d803ae7b6687f2b302017d57115e47018c7177eebf7cd370a3356a1b7863008a5ae8028c72b88642840160ae1d90565b828054620003c590620006a1565b90600052602060002090601f016020900481019282620003e9576000855562000434565b82601f106200040457805160ff191683800117855562000434565b8280016001018555821562000434579182015b828111156200043457825182559160200191906001019062000417565b506200044292915062000446565b5090565b5b8082111562000442576000815560010162000447565b6001600160a01b03811681146200047357600080fd5b50565b634e487b7160e01b600052604160045260246000fd5b600080600080600060a08688031215620004a557600080fd5b85519450602080870151620004ba816200045d565b6040880151909550620004cd816200045d565b6060880151909450620004e0816200045d565b60808801519093506001600160401b0380821115620004fe57600080fd5b818901915089601f8301126200051357600080fd5b81518181111562000528576200052862000476565b604051601f8201601f19908116603f0116810190838211818310171562000553576200055362000476565b816040528281528c868487010111156200056c57600080fd5b600093505b8284101562000590578484018601518185018701529285019262000571565b82841115620005a25760008684830101525b8096505050505050509295509295909350565b634e487b7160e01b600052601160045260246000fd5b60008083128015600160ff1b850184121615620005ec57620005ec620005b5565b6001600160ff1b03840183138116156200060a576200060a620005b5565b50500390565b60006001600160ff1b0381841382841380821686840486111615620006395762000639620005b5565b600160ff1b60008712828116878305891216156200065b576200065b620005b5565b600087129250878205871284841616156200067a576200067a620005b5565b87850587128184161615620006935762000693620005b5565b505050929093029392505050565b600181811c90821680620006b657607f821691505b602082108103620006d757634e487b7160e01b600052602260045260246000fd5b50919050565b60805160a05160c05160e05161010051610120516101405161016051610180516101a0516101c0516101e05161217662000792600039600081816102c90152610ce801526000818161041801526110510152600081816102f0015261122701526000611364015260006113430152600061138e015260006118040152600061184f0152600061182701526000610b4401526000818161025a0152610b1d01526000818161028f015261111301526121766000f3fe608060405234801561001057600080fd5b50600436106101a35760003560e01c806370a08231116100ee578063c87b56dd11610097578063dc1fb5a511610071578063dc1fb5a514610413578063e00dd1611461043a578063e985e9c514610456578063ec11de4b1461046957600080fd5b8063c87b56dd146103e5578063d4543fbe146103f8578063dbddb26a1461040b57600080fd5b806395d89b41116100c857806395d89b41146103b7578063a22cb465146103bf578063b88d4fde146103d257600080fd5b806370a082311461034b5780637f57ae601461035e578063812387601461036657600080fd5b806323b872dd1161015057806342842e0e1161012a57806342842e0e146103125780635cf4ee91146103255780636352211e1461033857600080fd5b806323b872dd146102b1578063255e4685146102c4578063274cdd5c146102eb57600080fd5b8063095ea7b311610181578063095ea7b3146102405780631d0806ae146102555780631d1c9e591461028a57600080fd5b806301ffc9a7146101a857806306fdde03146101d0578063081812fc146101e5575b600080fd5b6101bb6101b6366004611b77565b61047c565b60405190151581526020015b60405180910390f35b6101d8610561565b6040516101c79190611bc4565b61021b6101f3366004611c15565b60046020526000908152604090205473ffffffffffffffffffffffffffffffffffffffff1681565b60405173ffffffffffffffffffffffffffffffffffffffff90911681526020016101c7565b61025361024e366004611c52565b6105ef565b005b61027c7f000000000000000000000000000000000000000000000000000000000000000081565b6040519081526020016101c7565b61021b7f000000000000000000000000000000000000000000000000000000000000000081565b6102536102bf366004611c7c565b610713565b61027c7f000000000000000000000000000000000000000000000000000000000000000081565b61021b7f000000000000000000000000000000000000000000000000000000000000000081565b610253610320366004611c7c565b6109af565b61027c610333366004611cb8565b610b16565b61021b610346366004611c15565b610ba7565b61027c610359366004611cda565b610c38565b61027c610ce0565b6007546103969070010000000000000000000000000000000090046fffffffffffffffffffffffffffffffff1681565b6040516fffffffffffffffffffffffffffffffff90911681526020016101c7565b6101d8610d60565b6102536103cd366004611cf5565b610d6d565b6102536103e0366004611d31565b610e04565b6101d86103f3366004611c15565b610f5b565b61027c610406366004611c15565b610fc0565b6101d8611102565b61021b7f000000000000000000000000000000000000000000000000000000000000000081565b600754610396906fffffffffffffffffffffffffffffffff1681565b6101bb610464366004611dcc565b61110f565b61027c610477366004611c15565b6111a8565b60007f01ffc9a7000000000000000000000000000000000000000000000000000000007fffffffff000000000000000000000000000000000000000000000000000000008316148061050f57507f80ac58cd000000000000000000000000000000000000000000000000000000007fffffffff000000000000000000000000000000000000000000000000000000008316145b8061055b57507f5b5e139f000000000000000000000000000000000000000000000000000000007fffffffff000000000000000000000000000000000000000000000000000000008316145b92915050565b6000805461056e90611dff565b80601f016020809104026020016040519081016040528092919081815260200182805461059a90611dff565b80156105e75780601f106105bc576101008083540402835291602001916105e7565b820191906000526020600020905b8154815290600101906020018083116105ca57829003601f168201915b505050505081565b60008181526002602052604090205473ffffffffffffffffffffffffffffffffffffffff16338114806106275750610627813361110f565b610692576040517f08c379a000000000000000000000000000000000000000000000000000000000815260206004820152600e60248201527f4e4f545f415554484f52495a454400000000000000000000000000000000000060448201526064015b60405180910390fd5b60008281526004602052604080822080547fffffffffffffffffffffffff00000000000000000000000000000000000000001673ffffffffffffffffffffffffffffffffffffffff87811691821790925591518593918516917f8c5be1e5ebec7d5bd14f71427d1e84f3dd0314c0f7b2291e5b200ac8c7c3b92591a4505050565b60008181526002602052604090205473ffffffffffffffffffffffffffffffffffffffff8481169116146107a3576040517f08c379a000000000000000000000000000000000000000000000000000000000815260206004820152600a60248201527f57524f4e475f46524f4d000000000000000000000000000000000000000000006044820152606401610689565b73ffffffffffffffffffffffffffffffffffffffff8216610820576040517f08c379a000000000000000000000000000000000000000000000000000000000815260206004820152601160248201527f494e56414c49445f524543495049454e540000000000000000000000000000006044820152606401610689565b3373ffffffffffffffffffffffffffffffffffffffff841614806108495750610849833361110f565b80610877575060008181526004602052604090205473ffffffffffffffffffffffffffffffffffffffff1633145b6108dd576040517f08c379a000000000000000000000000000000000000000000000000000000000815260206004820152600e60248201527f4e4f545f415554484f52495a45440000000000000000000000000000000000006044820152606401610689565b73ffffffffffffffffffffffffffffffffffffffff808416600081815260036020908152604080832080547fffffffffffffffffffffffffffffffffffffffffffffffffffffffffffffffff019055938616808352848320805460010190558583526002825284832080547fffffffffffffffffffffffff00000000000000000000000000000000000000009081168317909155600490925284832080549092169091559251849392917fddf252ad1be2c89b69c2b068fc378daa952ba7f163c4a11628f55a4df523b3ef91a4505050565b6109ba838383610713565b73ffffffffffffffffffffffffffffffffffffffff82163b15610b11576040517f150b7a020000000000000000000000000000000000000000000000000000000080825233600483015273ffffffffffffffffffffffffffffffffffffffff858116602484015260448301849052608060648401526000608484015290919084169063150b7a029060a4016020604051808303816000875af1158015610a64573d6000803e3d6000fd5b505050506040513d601f19601f82011682018060405250810190610a889190611e4c565b7fffffffff000000000000000000000000000000000000000000000000000000001614610b11576040517f08c379a000000000000000000000000000000000000000000000000000000000815260206004820152601060248201527f554e534146455f524543495049454e54000000000000000000000000000000006044820152606401610689565b505050565b6000610ba07f0000000000000000000000000000000000000000000000000000000000000000610b9b610b967f0000000000000000000000000000000000000000000000000000000000000000610b76670de0b6b3a7640000880261132e565b62015180670de0b6b3a76400008a020503670de0b6b3a764000091020590565b6113c0565b6115ff565b9392505050565b60008181526002602052604090205473ffffffffffffffffffffffffffffffffffffffff1680610c33576040517f08c379a000000000000000000000000000000000000000000000000000000000815260206004820152600a60248201527f4e4f545f4d494e544544000000000000000000000000000000000000000000006044820152606401610689565b919050565b600073ffffffffffffffffffffffffffffffffffffffff8216610cb7576040517f08c379a000000000000000000000000000000000000000000000000000000000815260206004820152600c60248201527f5a45524f5f4144445245535300000000000000000000000000000000000000006044820152606401610689565b5073ffffffffffffffffffffffffffffffffffffffff1660009081526003602052604090205490565b600080610d0d7f000000000000000000000000000000000000000000000000000000000000000042611ec7565b9050610d1a601e82611ede565b600754909150610d5a9082906fffffffffffffffffffffffffffffffff700100000000000000000000000000000000820481169181169190910316610b16565b91505090565b6001805461056e90611dff565b33600081815260056020908152604080832073ffffffffffffffffffffffffffffffffffffffff87168085529083529281902080547fffffffffffffffffffffffffffffffffffffffffffffffffffffffffffffff001686151590811790915590519081529192917f17307eab39ab6107e8899845ad3d59bd9653f200f220920489ca2b5937696c31910160405180910390a35050565b610e0f858585610713565b73ffffffffffffffffffffffffffffffffffffffff84163b15610f54576040517f150b7a02000000000000000000000000000000000000000000000000000000008082529073ffffffffffffffffffffffffffffffffffffffff86169063150b7a0290610e889033908a90899089908990600401611f1b565b6020604051808303816000875af1158015610ea7573d6000803e3d6000fd5b505050506040513d601f19601f82011682018060405250810190610ecb9190611e4c565b7fffffffff000000000000000000000000000000000000000000000000000000001614610f54576040517f08c379a000000000000000000000000000000000000000000000000000000000815260206004820152601060248201527f554e534146455f524543495049454e54000000000000000000000000000000006044820152606401610689565b5050505050565b6007546060906fffffffffffffffffffffffffffffffff16821115610f8e57505060408051602081019091526000815290565b6006610f9983611624565b604051602001610faa929190611fb6565b6040516020818303038152906040529050919050565b600780546fffffffffffffffffffffffffffffffff700100000000000000000000000000000000808304821685018216908102928216838117909455911690911790600a82840104811115611041576040517f1852d2df00000000000000000000000000000000000000000000000000000000815260040160405180910390fd5b60005b838110156110845761107c7f000000000000000000000000000000000000000000000000000000000000000084600101945084611761565b600101611044565b50600780547fffffffffffffffffffffffffffffffff00000000000000000000000000000000166fffffffffffffffffffffffffffffffff8416179055604080518381526020810185905233917f3dfc3ca43090d91e6366fed3da1cec76a2b0be397a774a18759a04733087fdc1910160405180910390a250919050565b6006805461056e90611dff565b60007f000000000000000000000000000000000000000000000000000000000000000073ffffffffffffffffffffffffffffffffffffffff168273ffffffffffffffffffffffffffffffffffffffff160361116c5750600161055b565b5073ffffffffffffffffffffffffffffffffffffffff918216600090815260056020908152604080832093909416825291909152205460ff1690565b6000806111b3610ce0565b9050828111156111f2576040517f100e8e8400000000000000000000000000000000000000000000000000000000815260048101829052602401610689565b6040517f80457cfa000000000000000000000000000000000000000000000000000000008152336004820152602481018290527f000000000000000000000000000000000000000000000000000000000000000073ffffffffffffffffffffffffffffffffffffffff16906380457cfa90604401600060405180830381600087803b15801561128057600080fd5b505af1158015611294573d6000803e3d6000fd5b5050600780546fffffffffffffffffffffffffffffffff808216600101167fffffffffffffffffffffffffffffffff0000000000000000000000000000000090911681179091556040519094508492503391507f20252b2e059fcabc01e34aa1356ff91398b4525e2c2b80b88eda84314e1b4b93906113169085815260200190565b60405180910390a36113283383611761565b50919050565b60006901d21e30730124c08a9a82126113b7577f00000000000000000000000000000000000000000000000000000000000000007f0000000000000000000000000000000000000000000000000000000000000000670de0b6b3a76400007f0000000000000000000000000000000000000000000000000000000000000000850302050161055b565b61055b826117f1565b60007ffffffffffffffffffffffffffffffffffffffffffffffffdb731c958f34d94c182136113f157506000919050565b680755bf798b4a1bf1e58212611463576040517f08c379a000000000000000000000000000000000000000000000000000000000815260206004820152600c60248201527f4558505f4f564552464c4f5700000000000000000000000000000000000000006044820152606401610689565b6503782dace9d9604e83901b059150600060606bb17217f7d1cf79abc9e3b39884821b056b80000000000000000000000001901d6bb17217f7d1cf79abc9e3b39881029093037fffffffffffffffffffffffffffffffffffffffdbf3ccf1604d263450f02a550481018102606090811d6d0277594991cfc85f6e2461837cd9018202811d7fffffffffffffffffffffffffffffffffffffe5adedaa1cb095af9e4da10e363c018202811d6db1bbb201f443cf962f1a1d3db4a5018202811d7ffffffffffffffffffffffffffffffffffffd38dc772608b0ae56cce01296c0eb018202811d6e05180bb14799ab47a8a8cb2a527d57016d02d16720577bd19bf614176fe9ea6c10fe68e7fd37d0007b713f765084018402831d9081019084017ffffffffffffffffffffffffffffffffffffffe2c69812cf03b0763fd454a8f7e010290911d6e0587f503bb6ea29d25fcb7401964500190910279d835ebba824c98fb31b83b2ca45c000000000000000000000000010574029d9dc38563c32e5c2f6dc192ee70ef65f9978af30260c3939093039290921c92915050565b818102821583820583141761161357600080fd5b670de0b6b3a7640000900592915050565b60608160000361166757505060408051808201909152600181527f3000000000000000000000000000000000000000000000000000000000000000602082015290565b8160005b8115611691578061167b81612093565b915061168a9050600a836120cb565b915061166b565b60008167ffffffffffffffff8111156116ac576116ac6120df565b6040519080825280601f01601f1916602001820160405280156116d6576020820181803683370190505b5090505b8415611759576116eb600183611ec7565b91506116f8600a8661210e565b611703906030612122565b60f81b8183815181106117185761171861213a565b60200101907effffffffffffffffffffffffffffffffffffffffffffffffffffffffffffff1916908160001a905350611752600a866120cb565b94506116da565b949350505050565b73ffffffffffffffffffffffffffffffffffffffff8216600081815260036020908152604080832080546001019055848352600290915280822080547fffffffffffffffffffffffff0000000000000000000000000000000000000000168417905551839291907fddf252ad1be2c89b69c2b068fc378daa952ba7f163c4a11628f55a4df523b3ef908290a45050565b600061187f61184d670de0b6b3a76400007f000000000000000000000000000000000000000000000000000000000000000085017f00000000000000000000000000000000000000000000000000000000000000000503611888565b7f0000000000000000000000000000000000000000000000000000000000000000670de0b6b3a7640000919091020590565b60000392915050565b60008082136118f3576040517f08c379a000000000000000000000000000000000000000000000000000000000815260206004820152600960248201527f554e444546494e454400000000000000000000000000000000000000000000006044820152606401610689565b5060606fffffffffffffffffffffffffffffffff821160071b82811c67ffffffffffffffff1060061b1782811c63ffffffff1060051b1782811c61ffff1060041b1782811c60ff10600390811b90911783811c600f1060021b1783811c909110600190811b90911783811c90911017609f81810383019390931b90921c6c465772b2bbbb5f824b15207a3081018102821d6d0388eaa27412d5aca026815d636e018102821d6d0df99ac502031bf953eff472fdcc018102821d6d13cdffb29d51d99322bdff5f2211018102821d6d0a0f742023def783a307a986912e018102821d6d01920d8043ca89b5239253284e42018102821d6c0b7a86d7375468fac667a0a527016c29508e458543d8aa4df2abee7882018202831d6d0139601a2efabe717e604cbb4894018202831d6d02247f7a7b6594320649aa03aba1018202831d7fffffffffffffffffffffffffffffffffffffff73c0c716a594e00d54e3c4cbc9018202831d7ffffffffffffffffffffffffffffffffffffffdc7b88c420e53a9890533129f6f01820290921d7fffffffffffffffffffffffffffffffffffffff465fda27eb4d63ded474e5f83201027ffffffffffffffff5f6af8f7b3396644f18e157960000000000000000000000000105711340daa0d5f769dba1915cef59f0815a5506027fffffffffffffffffffffffffffffffffffffffffffffffffffffffffffffffa0919091017d0267a36c0c95b3975ab3ee5b203a7614a3f75373f047d803ae7b6687f2b302017d57115e47018c7177eebf7cd370a3356a1b7863008a5ae8028c72b88642840160ae1d90565b7fffffffff0000000000000000000000000000000000000000000000000000000081168114611b7457600080fd5b50565b600060208284031215611b8957600080fd5b8135610ba081611b46565b60005b83811015611baf578181015183820152602001611b97565b83811115611bbe576000848401525b50505050565b6020815260008251806020840152611be3816040850160208701611b94565b601f017fffffffffffffffffffffffffffffffffffffffffffffffffffffffffffffffe0169190910160400192915050565b600060208284031215611c2757600080fd5b5035919050565b803573ffffffffffffffffffffffffffffffffffffffff81168114610c3357600080fd5b60008060408385031215611c6557600080fd5b611c6e83611c2e565b946020939093013593505050565b600080600060608486031215611c9157600080fd5b611c9a84611c2e565b9250611ca860208501611c2e565b9150604084013590509250925092565b60008060408385031215611ccb57600080fd5b50508035926020909101359150565b600060208284031215611cec57600080fd5b610ba082611c2e565b60008060408385031215611d0857600080fd5b611d1183611c2e565b915060208301358015158114611d2657600080fd5b809150509250929050565b600080600080600060808688031215611d4957600080fd5b611d5286611c2e565b9450611d6060208701611c2e565b935060408601359250606086013567ffffffffffffffff80821115611d8457600080fd5b818801915088601f830112611d9857600080fd5b813581811115611da757600080fd5b896020828501011115611db957600080fd5b9699959850939650602001949392505050565b60008060408385031215611ddf57600080fd5b611de883611c2e565b9150611df660208401611c2e565b90509250929050565b600181811c90821680611e1357607f821691505b602082108103611328577f4e487b7100000000000000000000000000000000000000000000000000000000600052602260045260246000fd5b600060208284031215611e5e57600080fd5b8151610ba081611b46565b7f4e487b7100000000000000000000000000000000000000000000000000000000600052601260045260246000fd5b7f4e487b7100000000000000000000000000000000000000000000000000000000600052601160045260246000fd5b600082821015611ed957611ed9611e98565b500390565b6000817fffffffffffffffffffffffffffffffffffffffffffffffffffffffffffffffff0483118215151615611f1657611f16611e98565b500290565b600073ffffffffffffffffffffffffffffffffffffffff808816835280871660208401525084604083015260806060830152826080830152828460a0840137600060a0848401015260a07fffffffffffffffffffffffffffffffffffffffffffffffffffffffffffffffe0601f85011683010190509695505050505050565b60008151611fac818560208601611b94565b9290920192915050565b600080845481600182811c915080831680611fd257607f831692505b6020808410820361200a577f4e487b710000000000000000000000000000000000000000000000000000000086526022600452602486fd5b81801561201e576001811461204d5761207a565b7fffffffffffffffffffffffffffffffffffffffffffffffffffffffffffffff0086168952848901965061207a565b60008b81526020902060005b868110156120725781548b820152908501908301612059565b505084890196505b50505050505061208a8185611f9a565b95945050505050565b60007fffffffffffffffffffffffffffffffffffffffffffffffffffffffffffffffff82036120c4576120c4611e98565b5060010190565b6000826120da576120da611e69565b500490565b7f4e487b7100000000000000000000000000000000000000000000000000000000600052604160045260246000fd5b60008261211d5761211d611e69565b500690565b6000821982111561213557612135611e98565b500190565b7f4e487b7100000000000000000000000000000000000000000000000000000000600052603260045260246000fdfea164736f6c634300080d000a",
    "linkReferences": {}
  },
  "methodIdentifiers": {
    "BASE_URI()": "dbddb26a",
    "approve(address,uint256)": "095ea7b3",
    "artGobblers()": "1d1c9e59",
    "balanceOf(address)": "70a08231",
    "community()": "dc1fb5a5",
    "currentId()": "e00dd161",
    "getApproved(uint256)": "081812fc",
    "getPrice(uint256,uint256)": "5cf4ee91",
    "goo()": "274cdd5c",
    "initialPrice()": "1d0806ae",
    "isApprovedForAll(address,address)": "e985e9c5",
    "mintCommunityPages(uint256)": "d4543fbe",
    "mintFromGoo(uint256)": "ec11de4b",
    "mintStart()": "255e4685",
    "name()": "06fdde03",
    "numMintedForCommunity()": "81238760",
    "ownerOf(uint256)": "6352211e",
    "pagePrice()": "7f57ae60",
    "safeTransferFrom(address,address,uint256)": "42842e0e",
    "safeTransferFrom(address,address,uint256,bytes)": "b88d4fde",
    "setApprovalForAll(address,bool)": "a22cb465",
    "supportsInterface(bytes4)": "01ffc9a7",
    "symbol()": "95d89b41",
    "tokenURI(uint256)": "c87b56dd",
    "transferFrom(address,address,uint256)": "23b872dd"
  },
  "id": 23
}