{
  "abi": [
    {
      "inputs": [
        {
          "internalType": "bytes32",
          "name": "_merkleRoot",
          "type": "bytes32"
        },
        {
          "internalType": "uint256",
          "name": "_mintStart",
          "type": "uint256"
        },
        {
          "internalType": "contract Goo",
          "name": "_goo",
          "type": "address"
        },
        {
          "internalType": "address",
          "name": "_team",
          "type": "address"
        },
        {
          "internalType": "address",
          "name": "_community",
          "type": "address"
        },
        {
          "internalType": "address",
          "name": "_vrfCoordinator",
          "type": "address"
        },
        {
          "internalType": "address",
          "name": "_linkToken",
          "type": "address"
        },
        {
          "internalType": "bytes32",
          "name": "_chainlinkKeyHash",
          "type": "bytes32"
        },
        {
          "internalType": "uint256",
          "name": "_chainlinkFee",
          "type": "uint256"
        },
        {
          "internalType": "string",
          "name": "_baseUri",
          "type": "string"
        },
        {
          "internalType": "string",
          "name": "_unrevealedUri",
          "type": "string"
        }
      ],
      "stateMutability": "nonpayable",
      "type": "constructor"
    },
    {
      "inputs": [],
      "name": "AlreadyClaimed",
      "type": "error"
    },
    {
      "inputs": [
        {
          "internalType": "uint256",
          "name": "gobblerId",
          "type": "uint256"
        }
      ],
      "name": "CannotBurnLegendary",
      "type": "error"
    },
    {
      "inputs": [
        {
          "internalType": "uint256",
          "name": "cost",
          "type": "uint256"
        }
      ],
      "name": "IncorrectGobblerAmount",
      "type": "error"
    },
    {
      "inputs": [],
      "name": "InvalidProof",
      "type": "error"
    },
    {
      "inputs": [],
      "name": "MintStartPending",
      "type": "error"
    },
    {
      "inputs": [],
      "name": "NoRemainingLegendaryGobblers",
      "type": "error"
    },
    {
      "inputs": [
        {
          "internalType": "uint256",
          "name": "totalRemainingToBeRevealed",
          "type": "uint256"
        }
      ],
      "name": "NotEnoughRemainingToBeRevealed",
      "type": "error"
    },
    {
      "inputs": [
        {
          "internalType": "address",
          "name": "owner",
          "type": "address"
        }
      ],
      "name": "OwnerMismatch",
      "type": "error"
    },
    {
      "inputs": [
        {
          "internalType": "uint256",
          "name": "currentPrice",
          "type": "uint256"
        }
      ],
      "name": "PriceExceededMax",
      "type": "error"
    },
    {
      "inputs": [],
      "name": "RequestTooEarly",
      "type": "error"
    },
    {
      "inputs": [],
      "name": "ReserveImbalance",
      "type": "error"
    },
    {
      "inputs": [],
      "name": "RevealsPending",
      "type": "error"
    },
    {
      "inputs": [],
      "name": "SeedPending",
      "type": "error"
    },
    {
      "inputs": [],
      "name": "ZeroToBeRevealed",
      "type": "error"
    },
    {
      "anonymous": false,
      "inputs": [
        {
          "indexed": true,
          "internalType": "address",
          "name": "owner",
          "type": "address"
        },
        {
          "indexed": true,
          "internalType": "address",
          "name": "operator",
          "type": "address"
        },
        {
          "indexed": false,
          "internalType": "bool",
          "name": "approved",
          "type": "bool"
        }
      ],
      "name": "ApprovalForAll",
      "type": "event"
    },
    {
      "anonymous": false,
      "inputs": [
        {
          "indexed": true,
          "internalType": "address",
          "name": "user",
          "type": "address"
        },
        {
          "indexed": true,
          "internalType": "uint256",
          "name": "gobblerId",
          "type": "uint256"
        },
        {
          "indexed": true,
          "internalType": "address",
          "name": "nft",
          "type": "address"
        },
        {
          "indexed": false,
          "internalType": "uint256",
          "name": "id",
          "type": "uint256"
        }
      ],
      "name": "ArtFedToGobbler",
      "type": "event"
    },
    {
      "anonymous": false,
      "inputs": [
        {
          "indexed": true,
          "internalType": "address",
          "name": "user",
          "type": "address"
        },
        {
          "indexed": true,
          "internalType": "uint256",
          "name": "gobblerId",
          "type": "uint256"
        }
      ],
      "name": "GobblerClaimed",
      "type": "event"
    },
    {
      "anonymous": false,
      "inputs": [
        {
          "indexed": true,
          "internalType": "address",
          "name": "user",
          "type": "address"
        },
        {
          "indexed": true,
          "internalType": "uint256",
          "name": "gobblerId",
          "type": "uint256"
        },
        {
          "indexed": false,
          "internalType": "uint256",
          "name": "price",
          "type": "uint256"
        }
      ],
      "name": "GobblerPurchased",
      "type": "event"
    },
    {
      "anonymous": false,
      "inputs": [
        {
          "indexed": true,
          "internalType": "address",
          "name": "user",
          "type": "address"
        },
        {
          "indexed": false,
          "internalType": "uint256",
          "name": "numGobblers",
          "type": "uint256"
        },
        {
          "indexed": false,
          "internalType": "uint256",
          "name": "lastRevealedId",
          "type": "uint256"
        }
      ],
      "name": "GobblersRevealed",
      "type": "event"
    },
    {
      "anonymous": false,
      "inputs": [
        {
          "indexed": true,
          "internalType": "address",
          "name": "user",
          "type": "address"
        },
        {
          "indexed": false,
          "internalType": "uint256",
          "name": "gooAdded",
          "type": "uint256"
        }
      ],
      "name": "GooAdded",
      "type": "event"
    },
    {
      "anonymous": false,
      "inputs": [
        {
          "indexed": true,
          "internalType": "address",
          "name": "user",
          "type": "address"
        },
        {
          "indexed": false,
          "internalType": "uint256",
          "name": "gooAdded",
          "type": "uint256"
        }
      ],
      "name": "GooRemoved",
      "type": "event"
    },
    {
      "anonymous": false,
      "inputs": [
        {
          "indexed": true,
          "internalType": "address",
          "name": "user",
          "type": "address"
        },
        {
          "indexed": true,
          "internalType": "uint256",
          "name": "gobblerId",
          "type": "uint256"
        },
        {
          "indexed": false,
          "internalType": "uint256[]",
          "name": "burnedGobblerIds",
          "type": "uint256[]"
        }
      ],
      "name": "LegendaryGobblerMinted",
      "type": "event"
    },
    {
      "anonymous": false,
      "inputs": [
        {
          "indexed": true,
          "internalType": "address",
          "name": "user",
          "type": "address"
        },
        {
          "indexed": true,
          "internalType": "address",
          "name": "newOwner",
          "type": "address"
        }
      ],
      "name": "OwnerUpdated",
      "type": "event"
    },
    {
      "anonymous": false,
      "inputs": [
        {
          "indexed": false,
          "internalType": "uint256",
          "name": "randomness",
          "type": "uint256"
        }
      ],
      "name": "RandomnessFulfilled",
      "type": "event"
    },
    {
      "anonymous": false,
      "inputs": [
        {
          "indexed": true,
          "internalType": "address",
          "name": "user",
          "type": "address"
        },
        {
          "indexed": false,
          "internalType": "uint256",
          "name": "toBeRevealed",
          "type": "uint256"
        }
      ],
      "name": "RandomnessRequested",
      "type": "event"
    },
    {
      "anonymous": false,
      "inputs": [
        {
          "indexed": true,
          "internalType": "address",
          "name": "user",
          "type": "address"
        },
        {
          "indexed": false,
          "internalType": "uint256",
          "name": "lastMintedGobblerId",
          "type": "uint256"
        },
        {
          "indexed": false,
          "internalType": "uint256",
          "name": "numGobblersEach",
          "type": "uint256"
        }
      ],
      "name": "ReservedGobblersMinted",
      "type": "event"
    },
    {
      "anonymous": false,
      "inputs": [
        {
          "indexed": true,
          "internalType": "address",
          "name": "operator",
          "type": "address"
        },
        {
          "indexed": true,
          "internalType": "address",
          "name": "from",
          "type": "address"
        },
        {
          "indexed": true,
          "internalType": "address",
          "name": "to",
          "type": "address"
        },
        {
          "indexed": false,
          "internalType": "uint256[]",
          "name": "ids",
          "type": "uint256[]"
        },
        {
          "indexed": false,
          "internalType": "uint256[]",
          "name": "amounts",
          "type": "uint256[]"
        }
      ],
      "name": "TransferBatch",
      "type": "event"
    },
    {
      "anonymous": false,
      "inputs": [
        {
          "indexed": true,
          "internalType": "address",
          "name": "operator",
          "type": "address"
        },
        {
          "indexed": true,
          "internalType": "address",
          "name": "from",
          "type": "address"
        },
        {
          "indexed": true,
          "internalType": "address",
          "name": "to",
          "type": "address"
        },
        {
          "indexed": false,
          "internalType": "uint256",
          "name": "id",
          "type": "uint256"
        },
        {
          "indexed": false,
          "internalType": "uint256",
          "name": "amount",
          "type": "uint256"
        }
      ],
      "name": "TransferSingle",
      "type": "event"
    },
    {
      "anonymous": false,
      "inputs": [
        {
          "indexed": false,
          "internalType": "string",
          "name": "value",
          "type": "string"
        },
        {
          "indexed": true,
          "internalType": "uint256",
          "name": "id",
          "type": "uint256"
        }
      ],
      "name": "URI",
      "type": "event"
    },
    {
      "inputs": [],
      "name": "BASE_URI",
      "outputs": [
        {
          "internalType": "string",
          "name": "",
          "type": "string"
        }
      ],
      "stateMutability": "view",
      "type": "function"
    },
    {
      "inputs": [],
      "name": "FIRST_LEGENDARY_GOBBLER_ID",
      "outputs": [
        {
          "internalType": "uint256",
          "name": "",
          "type": "uint256"
        }
      ],
      "stateMutability": "view",
      "type": "function"
    },
    {
      "inputs": [],
      "name": "LEGENDARY_AUCTION_INTERVAL",
      "outputs": [
        {
          "internalType": "uint256",
          "name": "",
          "type": "uint256"
        }
      ],
      "stateMutability": "view",
      "type": "function"
    },
    {
      "inputs": [],
      "name": "LEGENDARY_SUPPLY",
      "outputs": [
        {
          "internalType": "uint256",
          "name": "",
          "type": "uint256"
        }
      ],
      "stateMutability": "view",
      "type": "function"
    },
    {
      "inputs": [],
      "name": "MAX_MINTABLE",
      "outputs": [
        {
          "internalType": "uint256",
          "name": "",
          "type": "uint256"
        }
      ],
      "stateMutability": "view",
      "type": "function"
    },
    {
      "inputs": [],
      "name": "MAX_SUPPLY",
      "outputs": [
        {
          "internalType": "uint256",
          "name": "",
          "type": "uint256"
        }
      ],
      "stateMutability": "view",
      "type": "function"
    },
    {
      "inputs": [],
      "name": "MINTLIST_SUPPLY",
      "outputs": [
        {
          "internalType": "uint256",
          "name": "",
          "type": "uint256"
        }
      ],
      "stateMutability": "view",
      "type": "function"
    },
    {
      "inputs": [],
      "name": "RESERVED_SUPPLY",
      "outputs": [
        {
          "internalType": "uint256",
          "name": "",
          "type": "uint256"
        }
      ],
      "stateMutability": "view",
      "type": "function"
    },
    {
      "inputs": [],
      "name": "UNREVEALED_URI",
      "outputs": [
        {
          "internalType": "string",
          "name": "",
          "type": "string"
        }
      ],
      "stateMutability": "view",
      "type": "function"
    },
    {
      "inputs": [
        {
          "internalType": "uint256",
          "name": "gooAmount",
          "type": "uint256"
        }
      ],
      "name": "addGoo",
      "outputs": [],
      "stateMutability": "nonpayable",
      "type": "function"
    },
    {
      "inputs": [
        {
          "internalType": "address",
          "name": "owner",
          "type": "address"
        },
        {
          "internalType": "uint256",
          "name": "id",
          "type": "uint256"
        }
      ],
      "name": "balanceOf",
      "outputs": [
        {
          "internalType": "uint256",
          "name": "bal",
          "type": "uint256"
        }
      ],
      "stateMutability": "view",
      "type": "function"
    },
    {
      "inputs": [
        {
          "internalType": "address[]",
          "name": "owners",
          "type": "address[]"
        },
        {
          "internalType": "uint256[]",
          "name": "ids",
          "type": "uint256[]"
        }
      ],
      "name": "balanceOfBatch",
      "outputs": [
        {
          "internalType": "uint256[]",
          "name": "balances",
          "type": "uint256[]"
        }
      ],
      "stateMutability": "view",
      "type": "function"
    },
    {
      "inputs": [
        {
          "internalType": "bytes32[]",
          "name": "proof",
          "type": "bytes32[]"
        }
      ],
      "name": "claimGobbler",
      "outputs": [
        {
          "internalType": "uint256",
          "name": "gobblerId",
          "type": "uint256"
        }
      ],
      "stateMutability": "nonpayable",
      "type": "function"
    },
    {
      "inputs": [],
      "name": "community",
      "outputs": [
        {
          "internalType": "address",
          "name": "",
          "type": "address"
        }
      ],
      "stateMutability": "view",
      "type": "function"
    },
    {
      "inputs": [],
      "name": "currentNonLegendaryId",
      "outputs": [
        {
          "internalType": "uint128",
          "name": "",
          "type": "uint128"
        }
      ],
      "stateMutability": "view",
      "type": "function"
    },
    {
      "inputs": [
        {
          "internalType": "uint256",
          "name": "gobblerId",
          "type": "uint256"
        },
        {
          "internalType": "address",
          "name": "nft",
          "type": "address"
        },
        {
          "internalType": "uint256",
          "name": "id",
          "type": "uint256"
        },
        {
          "internalType": "bool",
          "name": "isERC1155",
          "type": "bool"
        }
      ],
      "name": "feedArt",
      "outputs": [],
      "stateMutability": "nonpayable",
      "type": "function"
    },
    {
      "inputs": [
        {
          "internalType": "uint256",
          "name": "",
          "type": "uint256"
        },
        {
          "internalType": "address",
          "name": "",
          "type": "address"
        },
        {
          "internalType": "uint256",
          "name": "",
          "type": "uint256"
        }
      ],
      "name": "getCopiesOfArtFedToGobbler",
      "outputs": [
        {
          "internalType": "uint256",
          "name": "",
          "type": "uint256"
        }
      ],
      "stateMutability": "view",
      "type": "function"
    },
    {
      "inputs": [
        {
          "internalType": "address",
          "name": "",
          "type": "address"
        }
      ],
      "name": "getEmissionDataForUser",
      "outputs": [
        {
          "internalType": "uint64",
          "name": "emissionMultiple",
          "type": "uint64"
        },
        {
          "internalType": "uint128",
          "name": "lastBalance",
          "type": "uint128"
        },
        {
          "internalType": "uint64",
          "name": "lastTimestamp",
          "type": "uint64"
        }
      ],
      "stateMutability": "view",
      "type": "function"
    },
    {
      "inputs": [
        {
          "internalType": "uint256",
          "name": "",
          "type": "uint256"
        }
      ],
      "name": "getGobblerData",
      "outputs": [
        {
          "internalType": "address",
          "name": "owner",
          "type": "address"
        },
        {
          "internalType": "uint48",
          "name": "idx",
          "type": "uint48"
        },
        {
          "internalType": "uint48",
          "name": "emissionMultiple",
          "type": "uint48"
        }
      ],
      "stateMutability": "view",
      "type": "function"
    },
    {
      "inputs": [
        {
          "internalType": "uint256",
          "name": "gobblerId",
          "type": "uint256"
        }
      ],
      "name": "getGobblerEmissionMultiple",
      "outputs": [
        {
          "internalType": "uint256",
          "name": "",
          "type": "uint256"
        }
      ],
      "stateMutability": "view",
      "type": "function"
    },
    {
      "inputs": [
        {
          "internalType": "uint256",
          "name": "timeSinceStart",
          "type": "uint256"
        },
        {
          "internalType": "uint256",
          "name": "sold",
          "type": "uint256"
        }
      ],
      "name": "getPrice",
      "outputs": [
        {
          "internalType": "uint256",
          "name": "",
          "type": "uint256"
        }
      ],
      "stateMutability": "view",
      "type": "function"
    },
    {
      "inputs": [
        {
          "internalType": "address",
          "name": "user",
          "type": "address"
        }
      ],
      "name": "getUserEmissionMultiple",
      "outputs": [
        {
          "internalType": "uint256",
          "name": "",
          "type": "uint256"
        }
      ],
      "stateMutability": "view",
      "type": "function"
    },
    {
      "inputs": [],
      "name": "gobblerPrice",
      "outputs": [
        {
          "internalType": "uint256",
          "name": "",
          "type": "uint256"
        }
      ],
      "stateMutability": "view",
      "type": "function"
    },
    {
      "inputs": [],
      "name": "gobblerRevealsData",
      "outputs": [
        {
          "internalType": "uint64",
          "name": "randomSeed",
          "type": "uint64"
        },
        {
          "internalType": "uint64",
          "name": "nextRevealTimestamp",
          "type": "uint64"
        },
        {
          "internalType": "uint56",
          "name": "lastRevealedId",
          "type": "uint56"
        },
        {
          "internalType": "uint56",
          "name": "toBeRevealed",
          "type": "uint56"
        },
        {
          "internalType": "bool",
          "name": "waitingForSeed",
          "type": "bool"
        }
      ],
      "stateMutability": "view",
      "type": "function"
    },
    {
      "inputs": [],
      "name": "goo",
      "outputs": [
        {
          "internalType": "contract Goo",
          "name": "",
          "type": "address"
        }
      ],
      "stateMutability": "view",
      "type": "function"
    },
    {
      "inputs": [
        {
          "internalType": "address",
          "name": "user",
          "type": "address"
        }
      ],
      "name": "gooBalance",
      "outputs": [
        {
          "internalType": "uint256",
          "name": "",
          "type": "uint256"
        }
      ],
      "stateMutability": "view",
      "type": "function"
    },
    {
      "inputs": [
        {
          "internalType": "address",
          "name": "",
          "type": "address"
        }
      ],
      "name": "hasClaimedMintlistGobbler",
      "outputs": [
        {
          "internalType": "bool",
          "name": "",
          "type": "bool"
        }
      ],
      "stateMutability": "view",
      "type": "function"
    },
    {
      "inputs": [],
      "name": "initialPrice",
      "outputs": [
        {
          "internalType": "int256",
          "name": "",
          "type": "int256"
        }
      ],
      "stateMutability": "view",
      "type": "function"
    },
    {
      "inputs": [
        {
          "internalType": "address",
          "name": "",
          "type": "address"
        },
        {
          "internalType": "address",
          "name": "",
          "type": "address"
        }
      ],
      "name": "isApprovedForAll",
      "outputs": [
        {
          "internalType": "bool",
          "name": "",
          "type": "bool"
        }
      ],
      "stateMutability": "view",
      "type": "function"
    },
    {
      "inputs": [],
      "name": "legendaryGobblerAuctionData",
      "outputs": [
        {
          "internalType": "uint128",
          "name": "startPrice",
          "type": "uint128"
        },
        {
          "internalType": "uint128",
          "name": "numSold",
          "type": "uint128"
        }
      ],
      "stateMutability": "view",
      "type": "function"
    },
    {
      "inputs": [],
      "name": "legendaryGobblerPrice",
      "outputs": [
        {
          "internalType": "uint256",
          "name": "",
          "type": "uint256"
        }
      ],
      "stateMutability": "view",
      "type": "function"
    },
    {
      "inputs": [],
      "name": "merkleRoot",
      "outputs": [
        {
          "internalType": "bytes32",
          "name": "",
          "type": "bytes32"
        }
      ],
      "stateMutability": "view",
      "type": "function"
    },
    {
      "inputs": [
        {
          "internalType": "uint256",
          "name": "maxPrice",
          "type": "uint256"
        }
      ],
      "name": "mintFromGoo",
      "outputs": [
        {
          "internalType": "uint256",
          "name": "gobblerId",
          "type": "uint256"
        }
      ],
      "stateMutability": "nonpayable",
      "type": "function"
    },
    {
      "inputs": [
        {
          "internalType": "uint256[]",
          "name": "gobblerIds",
          "type": "uint256[]"
        }
      ],
      "name": "mintLegendaryGobbler",
      "outputs": [
        {
          "internalType": "uint256",
          "name": "gobblerId",
          "type": "uint256"
        }
      ],
      "stateMutability": "nonpayable",
      "type": "function"
    },
    {
      "inputs": [
        {
          "internalType": "uint256",
          "name": "numGobblersEach",
          "type": "uint256"
        }
      ],
      "name": "mintReservedGobblers",
      "outputs": [
        {
          "internalType": "uint256",
          "name": "lastMintedGobblerId",
          "type": "uint256"
        }
      ],
      "stateMutability": "nonpayable",
      "type": "function"
    },
    {
      "inputs": [],
      "name": "mintStart",
      "outputs": [
        {
          "internalType": "uint256",
          "name": "",
          "type": "uint256"
        }
      ],
      "stateMutability": "view",
      "type": "function"
    },
    {
      "inputs": [],
      "name": "name",
      "outputs": [
        {
          "internalType": "string",
          "name": "",
          "type": "string"
        }
      ],
      "stateMutability": "view",
      "type": "function"
    },
    {
      "inputs": [],
      "name": "numMintedForReserves",
      "outputs": [
        {
          "internalType": "uint256",
          "name": "",
          "type": "uint256"
        }
      ],
      "stateMutability": "view",
      "type": "function"
    },
    {
      "inputs": [],
      "name": "numMintedFromGoo",
      "outputs": [
        {
          "internalType": "uint128",
          "name": "",
          "type": "uint128"
        }
      ],
      "stateMutability": "view",
      "type": "function"
    },
    {
      "inputs": [
        {
          "internalType": "address",
          "name": "",
          "type": "address"
        },
        {
          "internalType": "address",
          "name": "",
          "type": "address"
        },
        {
          "internalType": "uint256[]",
          "name": "",
          "type": "uint256[]"
        },
        {
          "internalType": "uint256[]",
          "name": "",
          "type": "uint256[]"
        },
        {
          "internalType": "bytes",
          "name": "",
          "type": "bytes"
        }
      ],
      "name": "onERC1155BatchReceived",
      "outputs": [
        {
          "internalType": "bytes4",
          "name": "",
          "type": "bytes4"
        }
      ],
      "stateMutability": "nonpayable",
      "type": "function"
    },
    {
      "inputs": [
        {
          "internalType": "address",
          "name": "",
          "type": "address"
        },
        {
          "internalType": "address",
          "name": "",
          "type": "address"
        },
        {
          "internalType": "uint256",
          "name": "",
          "type": "uint256"
        },
        {
          "internalType": "uint256",
          "name": "",
          "type": "uint256"
        },
        {
          "internalType": "bytes",
          "name": "",
          "type": "bytes"
        }
      ],
      "name": "onERC1155Received",
      "outputs": [
        {
          "internalType": "bytes4",
          "name": "",
          "type": "bytes4"
        }
      ],
      "stateMutability": "nonpayable",
      "type": "function"
    },
    {
      "inputs": [],
      "name": "owner",
      "outputs": [
        {
          "internalType": "address",
          "name": "",
          "type": "address"
        }
      ],
      "stateMutability": "view",
      "type": "function"
    },
    {
      "inputs": [
        {
          "internalType": "uint256",
          "name": "id",
          "type": "uint256"
        }
      ],
      "name": "ownerOf",
      "outputs": [
        {
          "internalType": "address",
          "name": "owner",
          "type": "address"
        }
      ],
      "stateMutability": "view",
      "type": "function"
    },
    {
      "inputs": [
        {
          "internalType": "bytes32",
          "name": "requestId",
          "type": "bytes32"
        },
        {
          "internalType": "uint256",
          "name": "randomness",
          "type": "uint256"
        }
      ],
      "name": "rawFulfillRandomness",
      "outputs": [],
      "stateMutability": "nonpayable",
      "type": "function"
    },
    {
      "inputs": [
        {
          "internalType": "uint256",
          "name": "gooAmount",
          "type": "uint256"
        }
      ],
      "name": "removeGoo",
      "outputs": [],
      "stateMutability": "nonpayable",
      "type": "function"
    },
    {
      "inputs": [],
      "name": "requestRandomSeed",
      "outputs": [
        {
          "internalType": "bytes32",
          "name": "",
          "type": "bytes32"
        }
      ],
      "stateMutability": "nonpayable",
      "type": "function"
    },
    {
      "inputs": [
        {
          "internalType": "uint256",
          "name": "numGobblers",
          "type": "uint256"
        }
      ],
      "name": "revealGobblers",
      "outputs": [],
      "stateMutability": "nonpayable",
      "type": "function"
    },
    {
      "inputs": [
        {
          "internalType": "address",
          "name": "from",
          "type": "address"
        },
        {
          "internalType": "address",
          "name": "to",
          "type": "address"
        },
        {
          "internalType": "uint256[]",
          "name": "ids",
          "type": "uint256[]"
        },
        {
          "internalType": "uint256[]",
          "name": "amounts",
          "type": "uint256[]"
        },
        {
          "internalType": "bytes",
          "name": "data",
          "type": "bytes"
        }
      ],
      "name": "safeBatchTransferFrom",
      "outputs": [],
      "stateMutability": "nonpayable",
      "type": "function"
    },
    {
      "inputs": [
        {
          "internalType": "address",
          "name": "from",
          "type": "address"
        },
        {
          "internalType": "address",
          "name": "to",
          "type": "address"
        },
        {
          "internalType": "uint256",
          "name": "id",
          "type": "uint256"
        },
        {
          "internalType": "uint256",
          "name": "amount",
          "type": "uint256"
        },
        {
          "internalType": "bytes",
          "name": "data",
          "type": "bytes"
        }
      ],
      "name": "safeTransferFrom",
      "outputs": [],
      "stateMutability": "nonpayable",
      "type": "function"
    },
    {
      "inputs": [
        {
          "internalType": "address",
          "name": "operator",
          "type": "address"
        },
        {
          "internalType": "bool",
          "name": "approved",
          "type": "bool"
        }
      ],
      "name": "setApprovalForAll",
      "outputs": [],
      "stateMutability": "nonpayable",
      "type": "function"
    },
    {
      "inputs": [
        {
          "internalType": "address",
          "name": "newOwner",
          "type": "address"
        }
      ],
      "name": "setOwner",
      "outputs": [],
      "stateMutability": "nonpayable",
      "type": "function"
    },
    {
      "inputs": [],
      "name": "team",
      "outputs": [
        {
          "internalType": "address",
          "name": "",
          "type": "address"
        }
      ],
      "stateMutability": "view",
      "type": "function"
    },
    {
      "inputs": [
        {
          "internalType": "uint256",
          "name": "gobblerId",
          "type": "uint256"
        }
      ],
      "name": "uri",
      "outputs": [
        {
          "internalType": "string",
          "name": "",
          "type": "string"
        }
      ],
      "stateMutability": "view",
      "type": "function"
    }
  ],
  "bytecode": {
    "object": "0x6102406040523480156200001257600080fd5b5060405162005b8138038062005b818339810160408190526200003591620005de565b3386866005600a6200004c6107d0612710620006ed565b620000589190620006ed565b62000064919062000707565b600a620000766107d0612710620006ed565b620000829190620006ed565b6200008e9190620006ed565b620000a290670de0b6b3a76400006200072a565b6803c3656232739e0000608081905266082bd67afbc0009067044d575b885f0000620000e1620000db82670de0b6b3a76400006200074c565b62000222565b60a05250620000fb905082671bc16d674ec8000062000791565b60c0526101009190915260e0526001600160a01b0391821661014052811661012052600380546001600160a01b03191691831691821790556040516000907f8292fce18fa69edf4db7b94ea2e58241df0ae57f97e0a6c9b29067028bf92d76908290a3506102208a90526102008b90526001600160a01b03808a16610160528881166101805287166101a0526101c08490526101e08390528151620001a89060059060208501906200044e565b508051620001be9060049060208401906200044e565b50600980546001600160801b0319166045179055620001e08a610b4062000822565b600a80546001600160401b03929092166801000000000000000002600160401b600160801b031990921691909117905550620008799950505050505050505050565b6000808213620002645760405162461bcd60e51b815260206004820152600960248201526815539111519253915160ba1b604482015260640160405180910390fd5b5060606001600160801b03821160071b82811c6001600160401b031060061b1782811c63ffffffff1060051b1782811c61ffff1060041b1782811c60ff10600390811b90911783811c600f1060021b1783811c909110600190811b90911783811c90911017609f81810383019390931b90921c6c465772b2bbbb5f824b15207a3081018102821d6d0388eaa27412d5aca026815d636e018102821d6d0df99ac502031bf953eff472fdcc018102821d6d13cdffb29d51d99322bdff5f2211018102821d6d0a0f742023def783a307a986912e018102821d6d01920d8043ca89b5239253284e42018102821d6c0b7a86d7375468fac667a0a527016c29508e458543d8aa4df2abee7882018202831d6d0139601a2efabe717e604cbb4894018202831d6d02247f7a7b6594320649aa03aba1018202831d6c8c3f38e95a6b1ff2ab1c3b343619018202831d6d02384773bdf1ac5676facced60901901820290921d6cb9a025d814b29c212b8b1a07cd19010260016c0504a838426634cdd8738f543560611b03190105711340daa0d5f769dba1915cef59f0815a550602605f19919091017d0267a36c0c95b3975ab3ee5b203a7614a3f75373f047d803ae7b6687f2b302017d57115e47018c7177eebf7cd370a3356a1b7863008a5ae8028c72b88642840160ae1d90565b8280546200045c906200083d565b90600052602060002090601f016020900481019282620004805760008555620004cb565b82601f106200049b57805160ff1916838001178555620004cb565b82800160010185558215620004cb579182015b82811115620004cb578251825591602001919060010190620004ae565b50620004d9929150620004dd565b5090565b5b80821115620004d95760008155600101620004de565b80516001600160a01b03811681146200050c57600080fd5b919050565b634e487b7160e01b600052604160045260246000fd5b600082601f8301126200053957600080fd5b81516001600160401b038082111562000556576200055662000511565b604051601f8301601f19908116603f0116810190828211818310171562000581576200058162000511565b816040528381526020925086838588010111156200059e57600080fd5b600091505b83821015620005c25785820183015181830184015290820190620005a3565b83821115620005d45760008385830101525b9695505050505050565b60008060008060008060008060008060006101608c8e0312156200060157600080fd5b8b519a5060208c015199506200061a60408d01620004f4565b98506200062a60608d01620004f4565b97506200063a60808d01620004f4565b96506200064a60a08d01620004f4565b95506200065a60c08d01620004f4565b60e08d01516101008e01516101208f015192975090955093506001600160401b038111156200068857600080fd5b620006968e828f0162000527565b6101408e015190935090506001600160401b03811115620006b657600080fd5b620006c48e828f0162000527565b9150509295989b509295989b9093969950565b634e487b7160e01b600052601160045260246000fd5b600082821015620007025762000702620006d7565b500390565b6000826200072557634e487b7160e01b600052601260045260246000fd5b500490565b6000816000190483118215151615620007475762000747620006d7565b500290565b60008083128015600160ff1b8501841216156200076d576200076d620006d7565b6001600160ff1b03840183138116156200078b576200078b620006d7565b50500390565b60006001600160ff1b0381841382841380821686840486111615620007ba57620007ba620006d7565b600160ff1b6000871282811687830589121615620007dc57620007dc620006d7565b60008712925087820587128484161615620007fb57620007fb620006d7565b87850587128184161615620008145762000814620006d7565b505050929093029392505050565b60008219821115620008385762000838620006d7565b500190565b600181811c908216806200085257607f821691505b6020821081036200087357634e487b7160e01b600052602260045260246000fd5b50919050565b60805160a05160c05160e05161010051610120516101405161016051610180516101a0516101c0516101e051610200516102205161521a620009676000396000818161058601528181610f4301526126ec01526000818161066901526127c501526000612ce701526000612cc6015260008181610a8a0152611e7f0152600081816107ac0152611e2a0152600081816105ad01528181610bf0015281816125820152612fb301526000818161243101526142f9015260006142bd01526000613aa001526000613aeb01526000613ac301526000611d4601526000818161054c0152611d1f015261521a6000f3fe608060405234801561001057600080fd5b50600436106103565760003560e01c8063743ee994116101c8578063ca8165a111610104578063ea6eae3c116100a2578063f242432a1161007c578063f242432a14610b3e578063f5a9fed414610b51578063fa522a1514610b59578063fdfb91d014610b9f57600080fd5b8063ea6eae3c14610adf578063ec11de4b14610af2578063f23a6e6114610b0557600080fd5b8063dbddb26a116100de578063dbddb26a14610a7d578063dc1fb5a514610a85578063e1da26c614610aac578063e985e9c514610ab457600080fd5b8063ca8165a114610a11578063d075fbba14610a62578063d71d672f14610a7557600080fd5b8063956ce91111610171578063acede5fd1161014b578063acede5fd14610981578063bc197c8114610994578063c23d2bf614610a00578063c911c1b414610a0857600080fd5b8063956ce911146108b55780639cc397fb1461095b578063a22cb4651461096e57600080fd5b80638da5cb5b116101a25780638da5cb5b146107ce57806393bf6517146107ee57806394985ddd146108a257600080fd5b8063743ee994146107615780638493a7ad1461077457806385f2aef2146107a757600080fd5b806329afcaf7116102975780634e1273f411610240578063620927fd1161021a578063620927fd146106df5780636352211e1461071057806365ca58b8146107465780636ab659151461075957600080fd5b80634e1273f4146106a4578063507862d1146106c45780635cf4ee91146106cc57600080fd5b806331a53e9a1161027157806331a53e9a1461068b57806332cb6b0c146106935780633f879faf1461069c57600080fd5b806329afcaf7146105f45780632eb2c2d6146106515780632eb4a7ab1461066457600080fd5b806311f93e78116103045780631d0806ae116102de5780631d0806ae14610547578063201db8dd1461056e578063255e468514610581578063274cdd5c146105a857600080fd5b806311f93e781461042757806313af4035146104675780631c134fae1461047a57600080fd5b80630b38049f116103355780630b38049f146103f75780630e89341c1461040c57806310f255f51461041f57600080fd5b8062fdd58e1461035b5780630697e173146103a557806306fdde03146103ae575b600080fd5b610392610369366004614748565b60009081526001602052604090205473ffffffffffffffffffffffffffffffffffffffff161490565b6040519081526020015b60405180910390f35b61039260085481565b6103ea6040518060400160405280600d81526020017f4261727420426f62626c6572730000000000000000000000000000000000000081525081565b60405161039c91906147ec565b61040a6104053660046147ff565b610bbb565b005b6103ea61041a3660046147ff565b610d2f565b610392610f3b565b610392610435366004614818565b73ffffffffffffffffffffffffffffffffffffffff166000908152600b602052604090205467ffffffffffffffff1690565b61040a610475366004614818565b610f9e565b600a546105059067ffffffffffffffff808216916801000000000000000081049091169066ffffffffffffff70010000000000000000000000000000000082048116917701000000000000000000000000000000000000000000000081049091169060ff7e010000000000000000000000000000000000000000000000000000000000009091041685565b6040805167ffffffffffffffff968716815295909416602086015266ffffffffffffff928316938501939093521660608301521515608082015260a00161039c565b6103927f000000000000000000000000000000000000000000000000000000000000000081565b61039261057c36600461487f565b611095565b6103927f000000000000000000000000000000000000000000000000000000000000000081565b6105cf7f000000000000000000000000000000000000000000000000000000000000000081565b60405173ffffffffffffffffffffffffffffffffffffffff909116815260200161039c565b600954610628906fffffffffffffffffffffffffffffffff8082169170010000000000000000000000000000000090041682565b604080516fffffffffffffffffffffffffffffffff93841681529290911660208301520161039c565b61040a61065f366004614903565b611575565b6103927f000000000000000000000000000000000000000000000000000000000000000081565b610392611ac2565b61039261271081565b610392611aeb565b6106b76106b23660046149be565b611b35565b60405161039c9190614a65565b6103ea611c8a565b6103926106da366004614a78565b611d18565b6103926106ed366004614a9a565b600c60209081526000938452604080852082529284528284209052825290205481565b6105cf61071e3660046147ff565b60009081526001602052604090205473ffffffffffffffffffffffffffffffffffffffff1690565b6103926107543660046147ff565b611dab565b610392600a81565b61040a61076f3660046147ff565b611f32565b610797610782366004614818565b60066020526000908152604090205460ff1681565b604051901515815260200161039c565b6105cf7f000000000000000000000000000000000000000000000000000000000000000081565b6003546105cf9073ffffffffffffffffffffffffffffffffffffffff1681565b6108676107fc3660046147ff565b60016020526000908152604090205473ffffffffffffffffffffffffffffffffffffffff81169065ffffffffffff7401000000000000000000000000000000000000000082048116917a01000000000000000000000000000000000000000000000000000090041683565b6040805173ffffffffffffffffffffffffffffffffffffffff909416845265ffffffffffff928316602085015291169082015260600161039c565b61040a6108b0366004614a78565b612419565b61091f6108c3366004614818565b600b6020526000908152604090205467ffffffffffffffff808216916fffffffffffffffffffffffffffffffff680100000000000000008204169178010000000000000000000000000000000000000000000000009091041683565b6040805167ffffffffffffffff94851681526fffffffffffffffffffffffffffffffff909316602084015292169181019190915260600161039c565b61040a6109693660046147ff565b6124c6565b61040a61097c366004614ae0565b612652565b61039261098f36600461487f565b6126e7565b6109cf6109a2366004614903565b7fbc197c810000000000000000000000000000000000000000000000000000000098975050505050505050565b6040517fffffffff00000000000000000000000000000000000000000000000000000000909116815260200161039c565b6103926128f5565b6103926107d081565b600754610a419070010000000000000000000000000000000090046fffffffffffffffffffffffffffffffff1681565b6040516fffffffffffffffffffffffffffffffff909116815260200161039c565b610392610a70366004614818565b612941565b610392612a0a565b6103ea612a7f565b6105cf7f000000000000000000000000000000000000000000000000000000000000000081565b610392612a8c565b610797610ac2366004614b17565b600060208181529281526040808220909352908152205460ff1681565b61040a610aed366004614b4a565b612d0b565b610392610b003660046147ff565b612f34565b6109cf610b13366004614b92565b7ff23a6e61000000000000000000000000000000000000000000000000000000009695505050505050565b61040a610b4c366004614b92565b6130e5565b610392613541565b610392610b673660046147ff565b6000908152600160205260409020547a010000000000000000000000000000000000000000000000000000900465ffffffffffff1690565b600754610a41906fffffffffffffffffffffffffffffffff1681565b6040517f5f5a347d000000000000000000000000000000000000000000000000000000008152336004820152602481018290527f000000000000000000000000000000000000000000000000000000000000000073ffffffffffffffffffffffffffffffffffffffff1690635f5a347d90604401600060405180830381600087803b158015610c4957600080fd5b505af1158015610c5d573d6000803e3d6000fd5b5050505080610c6b33612941565b336000818152600b602052604090819020805467ffffffffffffffff42811678010000000000000000000000000000000000000000000000000277ffffffffffffffffffffffffffffffffffffffffffffffff6fffffffffffffffffffffffffffffffff98909701979097166801000000000000000002959095169416939093179390931790915590517f34b112341c0f71b7d58b17f78d48fc2d89f671293c767f2182de826c31b031df90610d249084815260200190565b60405180910390a250565b600a54606090700100000000000000000000000000000000900466ffffffffffffff168211610dd65781600003610d7457505060408051602081019091526000815290565b600082815260016020526040902054600590610daf9074010000000000000000000000000000000000000000900465ffffffffffff16613559565b604051602001610dc0929190614c73565b6040516020818303038152906040529050919050565b60075470010000000000000000000000000000000090046fffffffffffffffffffffffffffffffff168211610e975760048054610e1290614c0a565b80601f0160208091040260200160405190810160405280929190818152602001828054610e3e90614c0a565b8015610e8b5780601f10610e6057610100808354040283529160200191610e8b565b820191906000526020600020905b815481529060010190602001808311610e6e57829003601f168201915b50505050509050919050565b610ea4600a612710614d7f565b610eaf906001614d96565b821015610eca57505060408051602081019091526000815290565b60095470010000000000000000000000000000000090046fffffffffffffffffffffffffffffffff16610f00600a612710614d7f565b610f0b906001614d96565b610f159190614d96565b821015610f27576005610daf83613559565b505060408051602081019091526000815290565b600080610f687f000000000000000000000000000000000000000000000000000000000000000042614d7f565b9050610f75601e82614dae565b600754909150610f989082906fffffffffffffffffffffffffffffffff16611d18565b91505090565b60035473ffffffffffffffffffffffffffffffffffffffff163314611024576040517f08c379a000000000000000000000000000000000000000000000000000000000815260206004820152600c60248201527f554e415554484f52495a4544000000000000000000000000000000000000000060448201526064015b60405180910390fd5b600380547fffffffffffffffffffffffff00000000000000000000000000000000000000001673ffffffffffffffffffffffffffffffffffffffff831690811790915560405133907f8292fce18fa69edf4db7b94ea2e58241df0ae57f97e0a6c9b29067028bf92d7690600090a350565b60095460009070010000000000000000000000000000000090046fffffffffffffffffffffffffffffffff166110ce600a612710614d7f565b6110d9906001614d96565b6110e39190614d96565b9050612710811115611121576040517f203d2aff00000000000000000000000000000000000000000000000000000000815260040160405180910390fd5b600061112b612a0a565b9050828114611169576040517f64d188570000000000000000000000000000000000000000000000000000000081526004810182905260240161101b565b6000808467ffffffffffffffff81111561118557611185614deb565b6040519080825280602002602001820160405280156111ae578160200160208202803683370190505b5090506000805b86811015611331578787828181106111cf576111cf614e1a565b60200291909101359250506127078210611218576040517f400316c10000000000000000000000000000000000000000000000000000000081526004810183905260240161101b565b60008281526001602052604090205473ffffffffffffffffffffffffffffffffffffffff1633146112a5576040517f08c379a000000000000000000000000000000000000000000000000000000000815260206004820152600a60248201527f57524f4e475f46524f4d00000000000000000000000000000000000000000000604482015260640161101b565b600082815260016020819052604090912080547fffffffffffffffffffffffff0000000000000000000000000000000000000000811690915584517a01000000000000000000000000000000000000000000000000000090910465ffffffffffff16959095019484908390811061131e5761131e614e1a565b60209081029190910101526001016111b5565b50604051600090339081907f4a39dc06d4c0dbc64b70af90fd698a233a518aa5d07e595d983b8c0526c8f7fb9061136d908c908c908990614e98565b60405180910390a46000858152600160208190526040909120805479ffffffffffffffffffffffffffffffffffffffffffffffffffff167a0100000000000000000000000000000000000000000000000000009286901b65ffffffffffff16929092029190911790556113df33612941565b336000908152600b6020526040902080547fffffffffffffffffffffffffffffffffffffffffffffffff000000000000000067ffffffffffffffff918216680100000000000000006fffffffffffffffffffffffffffffffff959095169490940277ffffffffffffffffffffffffffffffffffffffffffffffff1693909317780100000000000000000000000000000000000000000000000042831602179283169281168601169190911790556023841061149e57600184901b6114a1565b60455b600980547001000000000000000000000000000000007fffffffffffffffffffffffffffffffff000000000000000000000000000000009091166effffffffffffffffffffffffffffff939093169283178190046fffffffffffffffffffffffffffffffff90811660010116029091179055604051859033907f56e7b1c70e179662f7de80c019829fb46dc5fa24327dd1b60a080eb40fcc264890611549908b908b90614ec8565b60405180910390a361156b338660405180602001604052806000815250613696565b5050505092915050565b8483146115de576040517f08c379a000000000000000000000000000000000000000000000000000000000815260206004820152600f60248201527f4c454e4754485f4d49534d415443480000000000000000000000000000000000604482015260640161101b565b3373ffffffffffffffffffffffffffffffffffffffff89161480611630575073ffffffffffffffffffffffffffffffffffffffff881660009081526020818152604080832033845290915290205460ff165b611696576040517f08c379a000000000000000000000000000000000000000000000000000000000815260206004820152600e60248201527f4e4f545f415554484f52495a4544000000000000000000000000000000000000604482015260640161101b565b60008080805b8881101561185a578989828181106116b6576116b6614e1a565b9050602002013593508787828181106116d1576116d1614e1a565b6000878152600160209081526040909120549102929092013594505073ffffffffffffffffffffffffffffffffffffffff8d811691161461176e576040517f08c379a000000000000000000000000000000000000000000000000000000000815260206004820152600a60248201527f57524f4e475f46524f4d00000000000000000000000000000000000000000000604482015260640161101b565b826001146117d8576040517f08c379a000000000000000000000000000000000000000000000000000000000815260206004820152600e60248201527f494e56414c49445f414d4f554e54000000000000000000000000000000000000604482015260640161101b565b600084815260016020819052604090912080547fffffffffffffffffffffffff00000000000000000000000000000000000000001673ffffffffffffffffffffffffffffffffffffffff8e1617908190557a010000000000000000000000000000000000000000000000000000900465ffffffffffff1692909201910161169c565b506118668b8b836138ed565b508873ffffffffffffffffffffffffffffffffffffffff168a73ffffffffffffffffffffffffffffffffffffffff163373ffffffffffffffffffffffffffffffffffffffff167f4a39dc06d4c0dbc64b70af90fd698a233a518aa5d07e595d983b8c0526c8f7fb8b8b8b8b6040516118e19493929190614edc565b60405180910390a473ffffffffffffffffffffffffffffffffffffffff89163b15611a39576040517fbc197c81000000000000000000000000000000000000000000000000000000008082529073ffffffffffffffffffffffffffffffffffffffff8b169063bc197c81906119689033908f908e908e908e908e908e908e90600401614f57565b6020604051808303816000875af1158015611987573d6000803e3d6000fd5b505050506040513d601f19601f820116820180604052508101906119ab9190614fc8565b7fffffffff000000000000000000000000000000000000000000000000000000001614611a34576040517f08c379a000000000000000000000000000000000000000000000000000000000815260206004820152601060248201527f554e534146455f524543495049454e5400000000000000000000000000000000604482015260640161101b565b611ab6565b73ffffffffffffffffffffffffffffffffffffffff8916611ab6576040517f08c379a000000000000000000000000000000000000000000000000000000000815260206004820152601160248201527f494e56414c49445f524543495049454e54000000000000000000000000000000604482015260640161101b565b50505050505050505050565b6005600a611ad46107d0612710614d7f565b611ade9190614d7f565b611ae89190615040565b81565b6005600a611afd6107d0612710614d7f565b611b079190614d7f565b611b119190615040565b600a611b216107d0612710614d7f565b611b2b9190614d7f565b611ae89190614d7f565b6060838214611ba0576040517f08c379a000000000000000000000000000000000000000000000000000000000815260206004820152600f60248201527f4c454e4754485f4d49534d415443480000000000000000000000000000000000604482015260640161101b565b8367ffffffffffffffff811115611bb957611bb9614deb565b604051908082528060200260200182016040528015611be2578160200160208202803683370190505b50905060005b84811015611c8157611c5c868683818110611c0557611c05614e1a565b9050602002016020810190611c1a9190614818565b858584818110611c2c57611c2c614e1a565b9050602002013560009081526001602052604090205473ffffffffffffffffffffffffffffffffffffffff161490565b828281518110611c6e57611c6e614e1a565b6020908102919091010152600101611be8565b50949350505050565b60048054611c9790614c0a565b80601f0160208091040260200160405190810160405280929190818152602001828054611cc390614c0a565b8015611d105780601f10611ce557610100808354040283529160200191611d10565b820191906000526020600020905b815481529060010190602001808311611cf357829003601f168201915b505050505081565b6000611da27f0000000000000000000000000000000000000000000000000000000000000000611d9d611d987f0000000000000000000000000000000000000000000000000000000000000000611d78670de0b6b3a76400008802613a8d565b62015180670de0b6b3a76400008a020503670de0b6b3a764000091020590565b613b24565b613d63565b90505b92915050565b60088054600183901b0190819055600754600091906005906fffffffffffffffffffffffffffffffff16820104811115611e11576040517f1852d2df00000000000000000000000000000000000000000000000000000000815260040160405180910390fd5b50600754604080516020810190915260008152611e78917f000000000000000000000000000000000000000000000000000000000000000091859170010000000000000000000000000000000090046fffffffffffffffffffffffffffffffff1690613d88565b9050611eb57f0000000000000000000000000000000000000000000000000000000000000000838360405180602001604052806000815250613d88565b600780546fffffffffffffffffffffffffffffffff80841670010000000000000000000000000000000002911617905560405190915033907f21b25c9888af4b88b39d68ccd24ddcf61072b85f93e20a5fb3fa46ad2a33450690611f259084908690918252602082015260400190565b60405180910390a2919050565b600a5467ffffffffffffffff81169066ffffffffffffff70010000000000000000000000000000000082048116917701000000000000000000000000000000000000000000000081049091169060ff7e010000000000000000000000000000000000000000000000000000000000009091041615611fdc576040517faacbcaa500000000000000000000000000000000000000000000000000000000815260040160405180910390fd5b80841115612019576040517fe6bdccb50000000000000000000000000000000000000000000000000000000081526004810182905260240161101b565b60005b84811015612332577fffffffffffffffffffffffffffffffffffffffffffffffffffffffffffffffff61270784900301600081868161205d5761205d615011565b06858101600190810160008181526020839052604081205492909801979293508792909165ffffffffffff7401000000000000000000000000000000000000000090910416156120db5760008281526001602052604090205474010000000000000000000000000000000000000000900465ffffffffffff166120dd565b815b60008481526001602052604081205491925073ffffffffffffffffffffffffffffffffffffffff82169174010000000000000000000000000000000000000000900465ffffffffffff16156121605760008581526001602052604090205474010000000000000000000000000000000000000000900465ffffffffffff16612162565b845b600086815260016020526040808220805473ffffffffffffffffffffffffffffffffffffffff167401000000000000000000000000000000000000000065ffffffffffff898116820279ffffffffffffffffffffffffffffffffffffffffffffffffffff16929092177a010000000000000000000000000000000000000000000000000000610bef8b106116298c10611f1c8d10010160090380851691909102919091179093558985529290932080547fffffffffffff000000000000ffffffffffffffffffffffffffffffffffffffff1693851690920292909217905590915061224c83612941565b73ffffffffffffffffffffffffffffffffffffffff939093166000908152600b60209081526040822080547fffffffffffffffffffffffffffffffffffffffffffffffff000000000000000067ffffffffffffffff918216680100000000000000006fffffffffffffffffffffffffffffffff9099169890980277ffffffffffffffffffffffffffffffffffffffffffffffff169790971778010000000000000000000000000000000000000000000000004283160217968716968116949094018416959095179094559b8c5291909a201698505050600193909301925061201c915050565b50600a805485830366ffffffffffffff90811677010000000000000000000000000000000000000000000000027fffff00000000000000ffffffffffffffffffffffffffffffffffffffffffffff918616700100000000000000000000000000000000027fffffffffffffffffff00000000000000ffffffffffffffff000000000000000090931667ffffffffffffffff881617929092171617905560405133907f29b3d7b055ea49418c154824fb1c7e9d0b2ade54028bdf2bb86ec2c152d505089061240b9087908690918252602082015260400190565b60405180910390a250505050565b3373ffffffffffffffffffffffffffffffffffffffff7f000000000000000000000000000000000000000000000000000000000000000016146124b8576040517f08c379a000000000000000000000000000000000000000000000000000000000815260206004820152601f60248201527f4f6e6c7920565246436f6f7264696e61746f722063616e2066756c66696c6c00604482015260640161101b565b6124c28282614110565b5050565b806124d033612941565b6124da9190614d7f565b336000818152600b602052604090819020805467ffffffffffffffff42811678010000000000000000000000000000000000000000000000000277ffffffffffffffffffffffffffffffffffffffffffffffff6fffffffffffffffffffffffffffffffff979097166801000000000000000002969096169116179390931790925590517f73a98eb80000000000000000000000000000000000000000000000000000000081527f000000000000000000000000000000000000000000000000000000000000000073ffffffffffffffffffffffffffffffffffffffff16916373a98eb8916125ee9190859060040173ffffffffffffffffffffffffffffffffffffffff929092168252602082015260400190565b600060405180830381600087803b15801561260857600080fd5b505af115801561261c573d6000803e3d6000fd5b50506040518381523392507f668b1580840b0f56d19bdf1dd3eaa9e604233ebcfbfcf34c56e354ad71c979109150602001610d24565b3360008181526020818152604080832073ffffffffffffffffffffffffffffffffffffffff87168085529083529281902080547fffffffffffffffffffffffffffffffffffffffffffffffffffffffffffffff001686151590811790915590519081529192917f17307eab39ab6107e8899845ad3d59bd9653f200f220920489ca2b5937696c31910160405180910390a35050565b6000427f00000000000000000000000000000000000000000000000000000000000000001115612743576040517fdc0847d100000000000000000000000000000000000000000000000000000000815260040160405180910390fd5b3360009081526006602052604090205460ff161561278d576040517f646cf55800000000000000000000000000000000000000000000000000000000815260040160405180910390fd5b6040517fffffffffffffffffffffffffffffffffffffffff0000000000000000000000003360601b16602082015261280390849084907f00000000000000000000000000000000000000000000000000000000000000009060340160405160208183030381529060405280519060200120614182565b612839576040517f09bde33900000000000000000000000000000000000000000000000000000000815260040160405180910390fd5b503360008181526006602052604080822080547fffffffffffffffffffffffffffffffffffffffffffffffffffffffffffffff00166001908117909155600780546fffffffffffffffffffffffffffffffff70010000000000000000000000000000000080830482169094018116938402911617905590519092839290917fdcaf83e788130088d0db84186fa9e819b95dad361b45111d1232abdcb170269c9190a3611da5338260405180602001604052806000815250613696565b612901600a6001614d96565b6005600a6129136107d0612710614d7f565b61291d9190614d7f565b6129279190615040565b600a6129376107d0612710614d7f565b611ad49190614d7f565b73ffffffffffffffffffffffffffffffffffffffff81166000908152600b602052604081205467ffffffffffffffff808216916fffffffffffffffffffffffffffffffff680100000000000000008204169184916201518091670de0b6b3a764000078010000000000000000000000000000000000000000000000009092041642030204601e02905060006129d682806141c2565b90506129f76129f0848602670de0b6b3a7640000026141d7565b83906141c2565b930260021c919091019091019392505050565b6009546007546000916fffffffffffffffffffffffffffffffff808216927001000000000000000000000000000000009092048116916001830161024502918591612a5791849116614d7f565b90506102458110612a6d57600094505050505090565b61024581810385020494505050505090565b60058054611c9790614c0a565b600a5460009068010000000000000000900467ffffffffffffffff1642811115612ae2576040517f600873b400000000000000000000000000000000000000000000000000000000815260040160405180910390fd5b600a5477010000000000000000000000000000000000000000000000900466ffffffffffffff1615612b40576040517f639dbd7300000000000000000000000000000000000000000000000000000000815260040160405180910390fd5b600a80547fff00ffffffffffffffffffffffffffffffffffffffffffffffffffffffffffff167e01000000000000000000000000000000000000000000000000000000000000179081905560075466ffffffffffffff70010000000000000000000000000000000092839004166fffffffffffffffffffffffffffffffff92909104821603166000819003612c01576040517f64c9800600000000000000000000000000000000000000000000000000000000815260040160405180910390fd5b600a80547fffff00000000000000ffffffffffffff0000000000000000ffffffffffffffff167701000000000000000000000000000000000000000000000066ffffffffffffff8416027fffffffffffffffffffffffffffffffff0000000000000000ffffffffffffffff161768010000000000000000610b40850167ffffffffffffffff160217905560405181815233907fc0412d082261082b733ae39d66dd3b4c4d14c47283f37f52dc3a3bb8a70efabe9060200160405180910390a250610f987f00000000000000000000000000000000000000000000000000000000000000007f00000000000000000000000000000000000000000000000000000000000000006142b9565b60008481526001602052604090205473ffffffffffffffffffffffffffffffffffffffff16338114612d81576040517f70e6839e00000000000000000000000000000000000000000000000000000000815273ffffffffffffffffffffffffffffffffffffffff8216600482015260240161101b565b6000858152600c6020908152604080832073ffffffffffffffffffffffffffffffffffffffff88168085529083528184208785528352928190208054600101905551858152879133917f9da0ebb97392a7c37f1ef43f07a98c9097fcaedb4d359ceb9ff7cae96c50f570910160405180910390a481612e8b576040517f23b872dd0000000000000000000000000000000000000000000000000000000081523360048201523060248201526044810184905273ffffffffffffffffffffffffffffffffffffffff8516906323b872dd90606401600060405180830381600087803b158015612e6e57600080fd5b505af1158015612e82573d6000803e3d6000fd5b50505050612f2d565b6040517ff242432a000000000000000000000000000000000000000000000000000000008152336004820152306024820152604481018490526001606482015260a06084820152600060a482015273ffffffffffffffffffffffffffffffffffffffff85169063f242432a9060c401600060405180830381600087803b158015612f1457600080fd5b505af1158015612f28573d6000803e3d6000fd5b505050505b5050505050565b600080612f3f610f3b565b905082811115612f7e576040517f100e8e840000000000000000000000000000000000000000000000000000000081526004810182905260240161101b565b6040517f5f5a347d000000000000000000000000000000000000000000000000000000008152336004820152602481018290527f000000000000000000000000000000000000000000000000000000000000000073ffffffffffffffffffffffffffffffffffffffff1690635f5a347d90604401600060405180830381600087803b15801561300c57600080fd5b505af1158015613020573d6000803e3d6000fd5b5050600780547001000000000000000000000000000000006fffffffffffffffffffffffffffffffff808316600190810182167fffffffffffffffffffffffffffffffff000000000000000000000000000000009094168417839004821601169081029091179091556040518481529094508492503391507fb5f2881b4bfa5b331603accccda550cb5a421c7696237b28e2ec4d5669093d1e9060200160405180910390a36130df338360405180602001604052806000815250613696565b50919050565b3373ffffffffffffffffffffffffffffffffffffffff87161480613137575073ffffffffffffffffffffffffffffffffffffffff861660009081526020818152604080832033845290915290205460ff165b61319d576040517f08c379a000000000000000000000000000000000000000000000000000000000815260206004820152600e60248201527f4e4f545f415554484f52495a4544000000000000000000000000000000000000604482015260640161101b565b60008481526001602052604090205473ffffffffffffffffffffffffffffffffffffffff87811691161461322d576040517f08c379a000000000000000000000000000000000000000000000000000000000815260206004820152600a60248201527f57524f4e475f46524f4d00000000000000000000000000000000000000000000604482015260640161101b565b82600114613297576040517f08c379a000000000000000000000000000000000000000000000000000000000815260206004820152600e60248201527f494e56414c49445f414d4f554e54000000000000000000000000000000000000604482015260640161101b565b600084815260016020526040902080547fffffffffffffffffffffffff00000000000000000000000000000000000000001673ffffffffffffffffffffffffffffffffffffffff8716179081905561331890879087907a010000000000000000000000000000000000000000000000000000900465ffffffffffff166138ed565b604080518581526020810185905273ffffffffffffffffffffffffffffffffffffffff808816929089169133917fc3d58168c5ae7397731d063d5bbf3d657854427343f4c083240f7aacaa2d0f62910160405180910390a473ffffffffffffffffffffffffffffffffffffffff85163b156134bc576040517ff23a6e61000000000000000000000000000000000000000000000000000000008082529073ffffffffffffffffffffffffffffffffffffffff87169063f23a6e61906133eb9033908b908a908a908a908a90600401615054565b6020604051808303816000875af115801561340a573d6000803e3d6000fd5b505050506040513d601f19601f8201168201806040525081019061342e9190614fc8565b7fffffffff0000000000000000000000000000000000000000000000000000000016146134b7576040517f08c379a000000000000000000000000000000000000000000000000000000000815260206004820152601060248201527f554e534146455f524543495049454e5400000000000000000000000000000000604482015260640161101b565b613539565b73ffffffffffffffffffffffffffffffffffffffff8516613539576040517f08c379a000000000000000000000000000000000000000000000000000000000815260206004820152601160248201527f494e56414c49445f524543495049454e54000000000000000000000000000000604482015260640161101b565b505050505050565b61354e600a612710614d7f565b611ae8906001614d96565b60608160000361359c57505060408051808201909152600181527f3000000000000000000000000000000000000000000000000000000000000000602082015290565b8160005b81156135c657806135b0816150a6565b91506135bf9050600a83615040565b91506135a0565b60008167ffffffffffffffff8111156135e1576135e1614deb565b6040519080825280601f01601f19166020018201604052801561360b576020820181803683370190505b5090505b841561368e57613620600183614d7f565b915061362d600a866150de565b613638906030614d96565b60f81b81838151811061364d5761364d614e1a565b60200101907effffffffffffffffffffffffffffffffffffffffffffffffffffffffffffff1916908160001a905350613687600a86615040565b945061360f565b949350505050565b600082815260016020818152604080842080547fffffffffffffffffffffffff00000000000000000000000000000000000000001673ffffffffffffffffffffffffffffffffffffffff891690811790915581518781529283019390935291929133917fc3d58168c5ae7397731d063d5bbf3d657854427343f4c083240f7aacaa2d0f62910160405180910390a473ffffffffffffffffffffffffffffffffffffffff83163b15613870576040517ff23a6e61000000000000000000000000000000000000000000000000000000008082529073ffffffffffffffffffffffffffffffffffffffff85169063f23a6e619061379f903390600090889060019089906004016150f2565b6020604051808303816000875af11580156137be573d6000803e3d6000fd5b505050506040513d601f19601f820116820180604052508101906137e29190614fc8565b7fffffffff00000000000000000000000000000000000000000000000000000000161461386b576040517f08c379a000000000000000000000000000000000000000000000000000000000815260206004820152601060248201527f554e534146455f524543495049454e5400000000000000000000000000000000604482015260640161101b565b505050565b73ffffffffffffffffffffffffffffffffffffffff831661386b576040517f08c379a000000000000000000000000000000000000000000000000000000000815260206004820152601160248201527f494e56414c49445f524543495049454e54000000000000000000000000000000604482015260640161101b565b6138f683612941565b73ffffffffffffffffffffffffffffffffffffffff84166000908152600b6020526040902080547fffffffffffffffffffffffffffffffffffffffffffffffff000000000000000067ffffffffffffffff918216680100000000000000006fffffffffffffffffffffffffffffffff959095169490940277ffffffffffffffffffffffffffffffffffffffffffffffff169390931778010000000000000000000000000000000000000000000000004283160217928316928116849003169190911790556139c382612941565b73ffffffffffffffffffffffffffffffffffffffff9092166000908152600b60205260409020805467ffffffffffffffff42811678010000000000000000000000000000000000000000000000000277ffffffffffffffffffffffffffffffffffffffffffffffff6fffffffffffffffffffffffffffffffff9690961668010000000000000000029590951691811691909117939093178084169092019092167fffffffffffffffffffffffffffffffffffffffffffffffff000000000000000090911617905550565b6000613b1b613ae9670de0b6b3a76400007f000000000000000000000000000000000000000000000000000000000000000085017f00000000000000000000000000000000000000000000000000000000000000000503614442565b7f0000000000000000000000000000000000000000000000000000000000000000670de0b6b3a7640000919091020590565b60000392915050565b60007ffffffffffffffffffffffffffffffffffffffffffffffffdb731c958f34d94c18213613b5557506000919050565b680755bf798b4a1bf1e58212613bc7576040517f08c379a000000000000000000000000000000000000000000000000000000000815260206004820152600c60248201527f4558505f4f564552464c4f570000000000000000000000000000000000000000604482015260640161101b565b6503782dace9d9604e83901b059150600060606bb17217f7d1cf79abc9e3b39884821b056b80000000000000000000000001901d6bb17217f7d1cf79abc9e3b39881029093037fffffffffffffffffffffffffffffffffffffffdbf3ccf1604d263450f02a550481018102606090811d6d0277594991cfc85f6e2461837cd9018202811d7fffffffffffffffffffffffffffffffffffffe5adedaa1cb095af9e4da10e363c018202811d6db1bbb201f443cf962f1a1d3db4a5018202811d7ffffffffffffffffffffffffffffffffffffd38dc772608b0ae56cce01296c0eb018202811d6e05180bb14799ab47a8a8cb2a527d57016d02d16720577bd19bf614176fe9ea6c10fe68e7fd37d0007b713f765084018402831d9081019084017ffffffffffffffffffffffffffffffffffffffe2c69812cf03b0763fd454a8f7e010290911d6e0587f503bb6ea29d25fcb7401964500190910279d835ebba824c98fb31b83b2ca45c000000000000000000000000010574029d9dc38563c32e5c2f6dc192ee70ef65f9978af30260c3939093039290921c92915050565b8181028215838205831417613d7757600080fd5b670de0b6b3a7640000900592915050565b6000808467ffffffffffffffff811115613da457613da4614deb565b604051908082528060200260200182016040528015613dcd578160200160208202803683370190505b50905060008567ffffffffffffffff811115613deb57613deb614deb565b604051908082528060200260200182016040528015613e14578160200160208202803683370190505b50905060005b86811015613ebd5785600101955085838281518110613e3b57613e3b614e1a565b6020026020010181815250506001828281518110613e5b57613e5b614e1a565b60209081029190910181019190915260008781526001918290526040902080547fffffffffffffffffffffffff00000000000000000000000000000000000000001673ffffffffffffffffffffffffffffffffffffffff8b1617905501613e1a565b508673ffffffffffffffffffffffffffffffffffffffff16600073ffffffffffffffffffffffffffffffffffffffff163373ffffffffffffffffffffffffffffffffffffffff167f4a39dc06d4c0dbc64b70af90fd698a233a518aa5d07e595d983b8c0526c8f7fb8585604051613f35929190615137565b60405180910390a473ffffffffffffffffffffffffffffffffffffffff87163b15614088576040517fbc197c81000000000000000000000000000000000000000000000000000000008082529073ffffffffffffffffffffffffffffffffffffffff89169063bc197c8190613fb7903390600090889088908c9060040161515c565b6020604051808303816000875af1158015613fd6573d6000803e3d6000fd5b505050506040513d601f19601f82011682018060405250810190613ffa9190614fc8565b7fffffffff000000000000000000000000000000000000000000000000000000001614614083576040517f08c379a000000000000000000000000000000000000000000000000000000000815260206004820152601060248201527f554e534146455f524543495049454e5400000000000000000000000000000000604482015260640161101b565b614105565b73ffffffffffffffffffffffffffffffffffffffff8716614105576040517f08c379a000000000000000000000000000000000000000000000000000000000815260206004820152601160248201527f494e56414c49445f524543495049454e54000000000000000000000000000000604482015260640161101b565b509295945050505050565b600a80547fff00ffffffffffffffffffffffffffffffffffffffffffff00000000000000001667ffffffffffffffff83161790556040517f0678731ae5818cd1d7fea152b34c7ce35819233a9559e8b988bc2b7d7d216a4f906141769083815260200190565b60405180910390a15050565b600081858560051b81015b808210156141b557813580841160051b9384526020938418526040600020929091019061418d565b5050909214949350505050565b6000611da28383670de0b6b3a7640000614700565b60018170010000000000000000000000000000000081106141fd5760409190911b9060801c5b6801000000000000000081106142185760209190911b9060401c5b640100000000811061422f5760109190911b9060201c5b6201000081106142445760089190911b9060101c5b61010081106142585760049190911b9060081c5b6010811061426b5760029190911b9060041c5b6008811061427a578160011b91505b5080820401600190811c80830401811c80830401811c80830401811c80830401811c80830401811c80830401901c808204818110156130df5792915050565b60007f000000000000000000000000000000000000000000000000000000000000000073ffffffffffffffffffffffffffffffffffffffff16634000aea07f000000000000000000000000000000000000000000000000000000000000000084866000604051602001614336929190918252602082015260400190565b6040516020818303038152906040526040518463ffffffff1660e01b8152600401614363939291906151bb565b6020604051808303816000875af1158015614382573d6000803e3d6000fd5b505050506040513d601f19601f820116820180604052508101906143a691906151f0565b50600083815260026020818152604080842054815180840189905280830186905230606082015260808082018390528351808303909101815260a090910190925281519183019190912093879052919052614402906001614d96565b60008581526002602052604090205561368e8482604080516020808201949094528082019290925280518083038201815260609092019052805191012090565b60008082136144ad576040517f08c379a000000000000000000000000000000000000000000000000000000000815260206004820152600960248201527f554e444546494e45440000000000000000000000000000000000000000000000604482015260640161101b565b5060606fffffffffffffffffffffffffffffffff821160071b82811c67ffffffffffffffff1060061b1782811c63ffffffff1060051b1782811c61ffff1060041b1782811c60ff10600390811b90911783811c600f1060021b1783811c909110600190811b90911783811c90911017609f81810383019390931b90921c6c465772b2bbbb5f824b15207a3081018102821d6d0388eaa27412d5aca026815d636e018102821d6d0df99ac502031bf953eff472fdcc018102821d6d13cdffb29d51d99322bdff5f2211018102821d6d0a0f742023def783a307a986912e018102821d6d01920d8043ca89b5239253284e42018102821d6c0b7a86d7375468fac667a0a527016c29508e458543d8aa4df2abee7882018202831d6d0139601a2efabe717e604cbb4894018202831d6d02247f7a7b6594320649aa03aba1018202831d7fffffffffffffffffffffffffffffffffffffff73c0c716a594e00d54e3c4cbc9018202831d7ffffffffffffffffffffffffffffffffffffffdc7b88c420e53a9890533129f6f01820290921d7fffffffffffffffffffffffffffffffffffffff465fda27eb4d63ded474e5f83201027ffffffffffffffff5f6af8f7b3396644f18e157960000000000000000000000000105711340daa0d5f769dba1915cef59f0815a5506027fffffffffffffffffffffffffffffffffffffffffffffffffffffffffffffffa0919091017d0267a36c0c95b3975ab3ee5b203a7614a3f75373f047d803ae7b6687f2b302017d57115e47018c7177eebf7cd370a3356a1b7863008a5ae8028c72b88642840160ae1d90565b82820281151584158583048514171661471857600080fd5b0492915050565b803573ffffffffffffffffffffffffffffffffffffffff8116811461474357600080fd5b919050565b6000806040838503121561475b57600080fd5b6147648361471f565b946020939093013593505050565b60005b8381101561478d578181015183820152602001614775565b8381111561479c576000848401525b50505050565b600081518084526147ba816020860160208601614772565b601f017fffffffffffffffffffffffffffffffffffffffffffffffffffffffffffffffe0169290920160200192915050565b602081526000611da260208301846147a2565b60006020828403121561481157600080fd5b5035919050565b60006020828403121561482a57600080fd5b611da28261471f565b60008083601f84011261484557600080fd5b50813567ffffffffffffffff81111561485d57600080fd5b6020830191508360208260051b850101111561487857600080fd5b9250929050565b6000806020838503121561489257600080fd5b823567ffffffffffffffff8111156148a957600080fd5b6148b585828601614833565b90969095509350505050565b60008083601f8401126148d357600080fd5b50813567ffffffffffffffff8111156148eb57600080fd5b60208301915083602082850101111561487857600080fd5b60008060008060008060008060a0898b03121561491f57600080fd5b6149288961471f565b975061493660208a0161471f565b9650604089013567ffffffffffffffff8082111561495357600080fd5b61495f8c838d01614833565b909850965060608b013591508082111561497857600080fd5b6149848c838d01614833565b909650945060808b013591508082111561499d57600080fd5b506149aa8b828c016148c1565b999c989b5096995094979396929594505050565b600080600080604085870312156149d457600080fd5b843567ffffffffffffffff808211156149ec57600080fd5b6149f888838901614833565b90965094506020870135915080821115614a1157600080fd5b50614a1e87828801614833565b95989497509550505050565b600081518084526020808501945080840160005b83811015614a5a57815187529582019590820190600101614a3e565b509495945050505050565b602081526000611da26020830184614a2a565b60008060408385031215614a8b57600080fd5b50508035926020909101359150565b600080600060608486031215614aaf57600080fd5b83359250614abf6020850161471f565b9150604084013590509250925092565b8015158114614add57600080fd5b50565b60008060408385031215614af357600080fd5b614afc8361471f565b91506020830135614b0c81614acf565b809150509250929050565b60008060408385031215614b2a57600080fd5b614b338361471f565b9150614b416020840161471f565b90509250929050565b60008060008060808587031215614b6057600080fd5b84359350614b706020860161471f565b9250604085013591506060850135614b8781614acf565b939692955090935050565b60008060008060008060a08789031215614bab57600080fd5b614bb48761471f565b9550614bc26020880161471f565b94506040870135935060608701359250608087013567ffffffffffffffff811115614bec57600080fd5b614bf889828a016148c1565b979a9699509497509295939492505050565b600181811c90821680614c1e57607f821691505b6020821081036130df577f4e487b7100000000000000000000000000000000000000000000000000000000600052602260045260246000fd5b60008151614c69818560208601614772565b9290920192915050565b600080845481600182811c915080831680614c8f57607f831692505b60208084108203614cc7577f4e487b710000000000000000000000000000000000000000000000000000000086526022600452602486fd5b818015614cdb5760018114614d0a57614d37565b7fffffffffffffffffffffffffffffffffffffffffffffffffffffffffffffff00861689528489019650614d37565b60008b81526020902060005b86811015614d2f5781548b820152908501908301614d16565b505084890196505b505050505050614d478185614c57565b95945050505050565b7f4e487b7100000000000000000000000000000000000000000000000000000000600052601160045260246000fd5b600082821015614d9157614d91614d50565b500390565b60008219821115614da957614da9614d50565b500190565b6000817fffffffffffffffffffffffffffffffffffffffffffffffffffffffffffffffff0483118215151615614de657614de6614d50565b500290565b7f4e487b7100000000000000000000000000000000000000000000000000000000600052604160045260246000fd5b7f4e487b7100000000000000000000000000000000000000000000000000000000600052603260045260246000fd5b81835260007f07ffffffffffffffffffffffffffffffffffffffffffffffffffffffffffffff831115614e7b57600080fd5b8260051b8083602087013760009401602001938452509192915050565b604081526000614eac604083018587614e49565b8281036020840152614ebe8185614a2a565b9695505050505050565b60208152600061368e602083018486614e49565b604081526000614ef0604083018688614e49565b8281036020840152614f03818587614e49565b979650505050505050565b8183528181602085013750600060208284010152600060207fffffffffffffffffffffffffffffffffffffffffffffffffffffffffffffffe0601f840116840101905092915050565b600073ffffffffffffffffffffffffffffffffffffffff808b168352808a1660208401525060a06040830152614f9160a08301888a614e49565b8281036060840152614fa4818789614e49565b90508281036080840152614fb9818587614f0e565b9b9a5050505050505050505050565b600060208284031215614fda57600080fd5b81517fffffffff000000000000000000000000000000000000000000000000000000008116811461500a57600080fd5b9392505050565b7f4e487b7100000000000000000000000000000000000000000000000000000000600052601260045260246000fd5b60008261504f5761504f615011565b500490565b600073ffffffffffffffffffffffffffffffffffffffff808916835280881660208401525085604083015284606083015260a0608083015261509a60a083018486614f0e565b98975050505050505050565b60007fffffffffffffffffffffffffffffffffffffffffffffffffffffffffffffffff82036150d7576150d7614d50565b5060010190565b6000826150ed576150ed615011565b500690565b600073ffffffffffffffffffffffffffffffffffffffff808816835280871660208401525084604083015283606083015260a06080830152614f0360a08301846147a2565b60408152600061514a6040830185614a2a565b8281036020840152614d478185614a2a565b600073ffffffffffffffffffffffffffffffffffffffff808816835280871660208401525060a0604083015261519560a0830186614a2a565b82810360608401526151a78186614a2a565b9050828103608084015261509a81856147a2565b73ffffffffffffffffffffffffffffffffffffffff84168152826020820152606060408201526000614d4760608301846147a2565b60006020828403121561520257600080fd5b815161500a81614acf56fea164736f6c634300080d000a",
    "linkReferences": {}
  },
  "methodIdentifiers": {
    "BASE_URI()": "dbddb26a",
    "FIRST_LEGENDARY_GOBBLER_ID()": "f5a9fed4",
    "LEGENDARY_AUCTION_INTERVAL()": "c23d2bf6",
    "LEGENDARY_SUPPLY()": "6ab65915",
    "MAX_MINTABLE()": "3f879faf",
    "MAX_SUPPLY()": "32cb6b0c",
    "MINTLIST_SUPPLY()": "c911c1b4",
    "RESERVED_SUPPLY()": "31a53e9a",
    "UNREVEALED_URI()": "507862d1",
    "addGoo(uint256)": "0b38049f",
    "balanceOf(address,uint256)": "00fdd58e",
    "balanceOfBatch(address[],uint256[])": "4e1273f4",
    "claimGobbler(bytes32[])": "acede5fd",
    "community()": "dc1fb5a5",
    "currentNonLegendaryId()": "ca8165a1",
    "feedArt(uint256,address,uint256,bool)": "ea6eae3c",
    "getCopiesOfArtFedToGobbler(uint256,address,uint256)": "620927fd",
    "getEmissionDataForUser(address)": "956ce911",
    "getGobblerData(uint256)": "93bf6517",
    "getGobblerEmissionMultiple(uint256)": "fa522a15",
    "getPrice(uint256,uint256)": "5cf4ee91",
    "getUserEmissionMultiple(address)": "11f93e78",
    "gobblerPrice()": "10f255f5",
    "gobblerRevealsData()": "1c134fae",
    "goo()": "274cdd5c",
    "gooBalance(address)": "d075fbba",
    "hasClaimedMintlistGobbler(address)": "8493a7ad",
    "initialPrice()": "1d0806ae",
    "isApprovedForAll(address,address)": "e985e9c5",
    "legendaryGobblerAuctionData()": "29afcaf7",
    "legendaryGobblerPrice()": "d71d672f",
    "merkleRoot()": "2eb4a7ab",
    "mintFromGoo(uint256)": "ec11de4b",
    "mintLegendaryGobbler(uint256[])": "201db8dd",
    "mintReservedGobblers(uint256)": "65ca58b8",
    "mintStart()": "255e4685",
    "name()": "06fdde03",
    "numMintedForReserves()": "0697e173",
    "numMintedFromGoo()": "fdfb91d0",
    "onERC1155BatchReceived(address,address,uint256[],uint256[],bytes)": "bc197c81",
    "onERC1155Received(address,address,uint256,uint256,bytes)": "f23a6e61",
    "owner()": "8da5cb5b",
    "ownerOf(uint256)": "6352211e",
    "rawFulfillRandomness(bytes32,uint256)": "94985ddd",
    "removeGoo(uint256)": "9cc397fb",
    "requestRandomSeed()": "e1da26c6",
    "revealGobblers(uint256)": "743ee994",
    "safeBatchTransferFrom(address,address,uint256[],uint256[],bytes)": "2eb2c2d6",
    "safeTransferFrom(address,address,uint256,uint256,bytes)": "f242432a",
    "setApprovalForAll(address,bool)": "a22cb465",
    "setOwner(address)": "13af4035",
    "team()": "85f2aef2",
    "uri(uint256)": "0e89341c"
  },
  "id": 21
}